{
	"contracts/Proposal.sol": {
		"ProposalContract": {
			"abi": [
				{
					"inputs": [],
					"stateMutability": "nonpayable",
					"type": "constructor"
				},
				{
					"inputs": [
						{
							"internalType": "string",
							"name": "_description",
							"type": "string"
						},
						{
							"internalType": "uint256",
							"name": "_total_vote_to_end",
							"type": "uint256"
						},
						{
							"internalType": "string",
							"name": "_title",
							"type": "string"
						}
					],
					"name": "create",
					"outputs": [],
					"stateMutability": "nonpayable",
					"type": "function"
				},
				{
					"inputs": [
						{
							"internalType": "address",
							"name": "new_owner",
							"type": "address"
						}
					],
					"name": "setOwner",
					"outputs": [],
					"stateMutability": "nonpayable",
					"type": "function"
				},
				{
					"inputs": [
						{
							"internalType": "uint8",
							"name": "choice",
							"type": "uint8"
						}
					],
					"name": "vote",
					"outputs": [],
					"stateMutability": "nonpayable",
					"type": "function"
				}
			],
			"devdoc": {
				"kind": "dev",
				"methods": {},
				"version": 1
			},
			"evm": {
				"assembly": "    /* \"contracts/Proposal.sol\":58:3116  contract ProposalContract {... */\n  mstore(0x40, 0x80)\n    /* \"contracts/Proposal.sol\":908:999  constructor() {... */\n  callvalue\n  dup1\n  iszero\n  tag_1\n  jumpi\n  revert(0x00, 0x00)\ntag_1:\n  pop\n    /* \"contracts/Proposal.sol\":940:950  msg.sender */\n  caller\n    /* \"contracts/Proposal.sol\":932:937  owner */\n  0x01\n  0x00\n    /* \"contracts/Proposal.sol\":932:950  owner = msg.sender */\n  0x0100\n  exp\n  dup2\n  sload\n  dup2\n  0xffffffffffffffffffffffffffffffffffffffff\n  mul\n  not\n  and\n  swap1\n  dup4\n  0xffffffffffffffffffffffffffffffffffffffff\n  and\n  mul\n  or\n  swap1\n  sstore\n  pop\n    /* \"contracts/Proposal.sol\":960:975  voted_addresses */\n  0x03\n    /* \"contracts/Proposal.sol\":981:991  msg.sender */\n  caller\n    /* \"contracts/Proposal.sol\":960:992  voted_addresses.push(msg.sender) */\n  swap1\n  dup1\n  0x01\n  dup2\n  sload\n  add\n  dup1\n  dup3\n  sstore\n  dup1\n  swap2\n  pop\n  pop\n  0x01\n  swap1\n  sub\n  swap1\n  0x00\n  mstore\n  keccak256(0x00, 0x20)\n  add\n  0x00\n  swap1\n  swap2\n  swap1\n  swap2\n  swap1\n  swap2\n  0x0100\n  exp\n  dup2\n  sload\n  dup2\n  0xffffffffffffffffffffffffffffffffffffffff\n  mul\n  not\n  and\n  swap1\n  dup4\n  0xffffffffffffffffffffffffffffffffffffffff\n  and\n  mul\n  or\n  swap1\n  sstore\n  pop\n    /* \"contracts/Proposal.sol\":58:3116  contract ProposalContract {... */\n  dataSize(sub_0)\n  dup1\n  dataOffset(sub_0)\n  0x00\n  codecopy\n  0x00\n  return\nstop\n\nsub_0: assembly {\n        /* \"contracts/Proposal.sol\":58:3116  contract ProposalContract {... */\n      mstore(0x40, 0x80)\n      callvalue\n      dup1\n      iszero\n      tag_1\n      jumpi\n      revert(0x00, 0x00)\n    tag_1:\n      pop\n      jumpi(tag_2, lt(calldatasize, 0x04))\n      shr(0xe0, calldataload(0x00))\n      dup1\n      0x13af4035\n      eq\n      tag_3\n      jumpi\n      dup1\n      0xb3f98adc\n      eq\n      tag_4\n      jumpi\n      dup1\n      0xe257a371\n      eq\n      tag_5\n      jumpi\n    tag_2:\n      revert(0x00, 0x00)\n        /* \"contracts/Proposal.sol\":1429:1519  function setOwner(address new_owner) external onlyOwner {... */\n    tag_3:\n      tag_6\n      0x04\n      dup1\n      calldatasize\n      sub\n      dup2\n      add\n      swap1\n      tag_7\n      swap2\n      swap1\n      tag_8\n      jump\t// in\n    tag_7:\n      tag_9\n      jump\t// in\n    tag_6:\n      stop\n        /* \"contracts/Proposal.sol\":1775:2625  function vote(uint8 choice) external active newVoter(msg.sender){... */\n    tag_4:\n      tag_10\n      0x04\n      dup1\n      calldatasize\n      sub\n      dup2\n      add\n      swap1\n      tag_11\n      swap2\n      swap1\n      tag_12\n      jump\t// in\n    tag_11:\n      tag_13\n      jump\t// in\n    tag_10:\n      stop\n        /* \"contracts/Proposal.sol\":1525:1769  function create(string calldata _description, uint256 _total_vote_to_end, string memory _title) external {... */\n    tag_5:\n      tag_14\n      0x04\n      dup1\n      calldatasize\n      sub\n      dup2\n      add\n      swap1\n      tag_15\n      swap2\n      swap1\n      tag_16\n      jump\t// in\n    tag_15:\n      tag_17\n      jump\t// in\n    tag_14:\n      stop\n        /* \"contracts/Proposal.sol\":1429:1519  function setOwner(address new_owner) external onlyOwner {... */\n    tag_9:\n        /* \"contracts/Proposal.sol\":1059:1064  owner */\n      0x01\n      0x00\n      swap1\n      sload\n      swap1\n      0x0100\n      exp\n      swap1\n      div\n      0xffffffffffffffffffffffffffffffffffffffff\n      and\n        /* \"contracts/Proposal.sol\":1045:1064  msg.sender == owner */\n      0xffffffffffffffffffffffffffffffffffffffff\n      and\n        /* \"contracts/Proposal.sol\":1045:1055  msg.sender */\n      caller\n        /* \"contracts/Proposal.sol\":1045:1064  msg.sender == owner */\n      0xffffffffffffffffffffffffffffffffffffffff\n      and\n      eq\n        /* \"contracts/Proposal.sol\":1037:1065  require(msg.sender == owner) */\n      tag_19\n      jumpi\n      revert(0x00, 0x00)\n    tag_19:\n        /* \"contracts/Proposal.sol\":1503:1512  new_owner */\n      dup1\n        /* \"contracts/Proposal.sol\":1495:1500  owner */\n      0x01\n      0x00\n        /* \"contracts/Proposal.sol\":1495:1512  owner = new_owner */\n      0x0100\n      exp\n      dup2\n      sload\n      dup2\n      0xffffffffffffffffffffffffffffffffffffffff\n      mul\n      not\n      and\n      swap1\n      dup4\n      0xffffffffffffffffffffffffffffffffffffffff\n      and\n      mul\n      or\n      swap1\n      sstore\n      pop\n        /* \"contracts/Proposal.sol\":1429:1519  function setOwner(address new_owner) external onlyOwner {... */\n      pop\n      jump\t// out\n        /* \"contracts/Proposal.sol\":1775:2625  function vote(uint8 choice) external active newVoter(msg.sender){... */\n    tag_13:\n        /* \"contracts/Proposal.sol\":1164:1168  true */\n      0x01\n        /* \"contracts/Proposal.sol\":1125:1168  proposal_history[counter].is_active == true */\n      iszero\n      iszero\n        /* \"contracts/Proposal.sol\":1125:1141  proposal_history */\n      0x02\n        /* \"contracts/Proposal.sol\":1125:1150  proposal_history[counter] */\n      0x00\n        /* \"contracts/Proposal.sol\":1142:1149  counter */\n      sload(0x00)\n        /* \"contracts/Proposal.sol\":1125:1150  proposal_history[counter] */\n      dup2\n      mstore\n      0x20\n      add\n      swap1\n      dup2\n      mstore\n      0x20\n      add\n      0x00\n      keccak256\n        /* \"contracts/Proposal.sol\":1125:1160  proposal_history[counter].is_active */\n      0x05\n      add\n      0x01\n      swap1\n      sload\n      swap1\n      0x0100\n      exp\n      swap1\n      div\n      0xff\n      and\n        /* \"contracts/Proposal.sol\":1125:1168  proposal_history[counter].is_active == true */\n      iszero\n      iszero\n      eq\n        /* \"contracts/Proposal.sol\":1117:1169  require(proposal_history[counter].is_active == true) */\n      tag_22\n      jumpi\n      revert(0x00, 0x00)\n    tag_22:\n        /* \"contracts/Proposal.sol\":1828:1838  msg.sender */\n      caller\n        /* \"contracts/Proposal.sol\":1248:1265  isVoted(_address) */\n      tag_24\n        /* \"contracts/Proposal.sol\":1256:1264  _address */\n      dup2\n        /* \"contracts/Proposal.sol\":1248:1255  isVoted */\n      tag_25\n        /* \"contracts/Proposal.sol\":1248:1265  isVoted(_address) */\n      jump\t// in\n    tag_24:\n        /* \"contracts/Proposal.sol\":1247:1265  !isVoted(_address) */\n      iszero\n        /* \"contracts/Proposal.sol\":1239:1295  require(!isVoted(_address), \"Address has already voted\") */\n      tag_26\n      jumpi\n      mload(0x40)\n      0x08c379a000000000000000000000000000000000000000000000000000000000\n      dup2\n      mstore\n      0x04\n      add\n      tag_27\n      swap1\n      tag_28\n      jump\t// in\n    tag_27:\n      mload(0x40)\n      dup1\n      swap2\n      sub\n      swap1\n      revert\n    tag_26:\n        /* \"contracts/Proposal.sol\":1849:1874  Proposal storage proposal */\n      0x00\n        /* \"contracts/Proposal.sol\":1877:1893  proposal_history */\n      0x02\n        /* \"contracts/Proposal.sol\":1877:1902  proposal_history[counter] */\n      0x00\n        /* \"contracts/Proposal.sol\":1894:1901  counter */\n      sload(0x00)\n        /* \"contracts/Proposal.sol\":1877:1902  proposal_history[counter] */\n      dup2\n      mstore\n      0x20\n      add\n      swap1\n      dup2\n      mstore\n      0x20\n      add\n      0x00\n      keccak256\n        /* \"contracts/Proposal.sol\":1849:1902  Proposal storage proposal = proposal_history[counter] */\n      swap1\n      pop\n        /* \"contracts/Proposal.sol\":1912:1930  uint256 total_vote */\n      0x00\n        /* \"contracts/Proposal.sol\":1970:1978  proposal */\n      dup2\n        /* \"contracts/Proposal.sol\":1970:1983  proposal.pass */\n      0x03\n      add\n      sload\n        /* \"contracts/Proposal.sol\":1952:1960  proposal */\n      dup3\n        /* \"contracts/Proposal.sol\":1952:1967  proposal.reject */\n      0x02\n      add\n      sload\n        /* \"contracts/Proposal.sol\":1933:1941  proposal */\n      dup4\n        /* \"contracts/Proposal.sol\":1933:1949  proposal.approve */\n      0x01\n      add\n      sload\n        /* \"contracts/Proposal.sol\":1933:1967  proposal.approve + proposal.reject */\n      tag_30\n      swap2\n      swap1\n      tag_31\n      jump\t// in\n    tag_30:\n        /* \"contracts/Proposal.sol\":1933:1983  proposal.approve + proposal.reject + proposal.pass */\n      tag_32\n      swap2\n      swap1\n      tag_31\n      jump\t// in\n    tag_32:\n        /* \"contracts/Proposal.sol\":1912:1983  uint256 total_vote = proposal.approve + proposal.reject + proposal.pass */\n      swap1\n      pop\n        /* \"contracts/Proposal.sol\":1994:2009  voted_addresses */\n      0x03\n        /* \"contracts/Proposal.sol\":2015:2025  msg.sender */\n      caller\n        /* \"contracts/Proposal.sol\":1994:2026  voted_addresses.push(msg.sender) */\n      swap1\n      dup1\n      0x01\n      dup2\n      sload\n      add\n      dup1\n      dup3\n      sstore\n      dup1\n      swap2\n      pop\n      pop\n      0x01\n      swap1\n      sub\n      swap1\n      0x00\n      mstore\n      keccak256(0x00, 0x20)\n      add\n      0x00\n      swap1\n      swap2\n      swap1\n      swap2\n      swap1\n      swap2\n      0x0100\n      exp\n      dup2\n      sload\n      dup2\n      0xffffffffffffffffffffffffffffffffffffffff\n      mul\n      not\n      and\n      swap1\n      dup4\n      0xffffffffffffffffffffffffffffffffffffffff\n      and\n      mul\n      or\n      swap1\n      sstore\n      pop\n        /* \"contracts/Proposal.sol\":2051:2052  1 */\n      0x01\n        /* \"contracts/Proposal.sol\":2041:2047  choice */\n      dup5\n        /* \"contracts/Proposal.sol\":2041:2052  choice == 1 */\n      0xff\n      and\n      sub\n        /* \"contracts/Proposal.sol\":2037:2420  if (choice == 1) {... */\n      tag_34\n      jumpi\n        /* \"contracts/Proposal.sol\":2088:2089  1 */\n      0x01\n        /* \"contracts/Proposal.sol\":2068:2076  proposal */\n      dup3\n        /* \"contracts/Proposal.sol\":2068:2084  proposal.approve */\n      0x01\n      add\n      0x00\n        /* \"contracts/Proposal.sol\":2068:2089  proposal.approve += 1 */\n      dup3\n      dup3\n      sload\n      tag_35\n      swap2\n      swap1\n      tag_31\n      jump\t// in\n    tag_35:\n      swap3\n      pop\n      pop\n      dup2\n      swap1\n      sstore\n      pop\n        /* \"contracts/Proposal.sol\":2128:2151  calculateCurrentState() */\n      tag_36\n        /* \"contracts/Proposal.sol\":2128:2149  calculateCurrentState */\n      tag_37\n        /* \"contracts/Proposal.sol\":2128:2151  calculateCurrentState() */\n      jump\t// in\n    tag_36:\n        /* \"contracts/Proposal.sol\":2103:2111  proposal */\n      dup3\n        /* \"contracts/Proposal.sol\":2103:2125  proposal.current_state */\n      0x05\n      add\n      0x00\n        /* \"contracts/Proposal.sol\":2103:2151  proposal.current_state = calculateCurrentState() */\n      0x0100\n      exp\n      dup2\n      sload\n      dup2\n      0xff\n      mul\n      not\n      and\n      swap1\n      dup4\n      iszero\n      iszero\n      mul\n      or\n      swap1\n      sstore\n      pop\n        /* \"contracts/Proposal.sol\":2037:2420  if (choice == 1) {... */\n      jump(tag_38)\n    tag_34:\n        /* \"contracts/Proposal.sol\":2182:2183  2 */\n      0x02\n        /* \"contracts/Proposal.sol\":2172:2178  choice */\n      dup5\n        /* \"contracts/Proposal.sol\":2172:2183  choice == 2 */\n      0xff\n      and\n      sub\n        /* \"contracts/Proposal.sol\":2168:2420  if (choice == 2) {... */\n      tag_39\n      jumpi\n        /* \"contracts/Proposal.sol\":2218:2219  1 */\n      0x01\n        /* \"contracts/Proposal.sol\":2199:2207  proposal */\n      dup3\n        /* \"contracts/Proposal.sol\":2199:2214  proposal.reject */\n      0x02\n      add\n      0x00\n        /* \"contracts/Proposal.sol\":2199:2219  proposal.reject += 1 */\n      dup3\n      dup3\n      sload\n      tag_40\n      swap2\n      swap1\n      tag_31\n      jump\t// in\n    tag_40:\n      swap3\n      pop\n      pop\n      dup2\n      swap1\n      sstore\n      pop\n        /* \"contracts/Proposal.sol\":2258:2281  calculateCurrentState() */\n      tag_41\n        /* \"contracts/Proposal.sol\":2258:2279  calculateCurrentState */\n      tag_37\n        /* \"contracts/Proposal.sol\":2258:2281  calculateCurrentState() */\n      jump\t// in\n    tag_41:\n        /* \"contracts/Proposal.sol\":2233:2241  proposal */\n      dup3\n        /* \"contracts/Proposal.sol\":2233:2255  proposal.current_state */\n      0x05\n      add\n      0x00\n        /* \"contracts/Proposal.sol\":2233:2281  proposal.current_state = calculateCurrentState() */\n      0x0100\n      exp\n      dup2\n      sload\n      dup2\n      0xff\n      mul\n      not\n      and\n      swap1\n      dup4\n      iszero\n      iszero\n      mul\n      or\n      swap1\n      sstore\n      pop\n        /* \"contracts/Proposal.sol\":2168:2420  if (choice == 2) {... */\n      jump(tag_42)\n    tag_39:\n        /* \"contracts/Proposal.sol\":2312:2313  0 */\n      0x00\n        /* \"contracts/Proposal.sol\":2302:2308  choice */\n      dup5\n        /* \"contracts/Proposal.sol\":2302:2313  choice == 0 */\n      0xff\n      and\n      sub\n        /* \"contracts/Proposal.sol\":2298:2420  if (choice == 0) {... */\n      tag_43\n      jumpi\n        /* \"contracts/Proposal.sol\":2346:2347  1 */\n      0x01\n        /* \"contracts/Proposal.sol\":2329:2337  proposal */\n      dup3\n        /* \"contracts/Proposal.sol\":2329:2342  proposal.pass */\n      0x03\n      add\n      0x00\n        /* \"contracts/Proposal.sol\":2329:2347  proposal.pass += 1 */\n      dup3\n      dup3\n      sload\n      tag_44\n      swap2\n      swap1\n      tag_31\n      jump\t// in\n    tag_44:\n      swap3\n      pop\n      pop\n      dup2\n      swap1\n      sstore\n      pop\n        /* \"contracts/Proposal.sol\":2386:2409  calculateCurrentState() */\n      tag_45\n        /* \"contracts/Proposal.sol\":2386:2407  calculateCurrentState */\n      tag_37\n        /* \"contracts/Proposal.sol\":2386:2409  calculateCurrentState() */\n      jump\t// in\n    tag_45:\n        /* \"contracts/Proposal.sol\":2361:2369  proposal */\n      dup3\n        /* \"contracts/Proposal.sol\":2361:2383  proposal.current_state */\n      0x05\n      add\n      0x00\n        /* \"contracts/Proposal.sol\":2361:2409  proposal.current_state = calculateCurrentState() */\n      0x0100\n      exp\n      dup2\n      sload\n      dup2\n      0xff\n      mul\n      not\n      and\n      swap1\n      dup4\n      iszero\n      iszero\n      mul\n      or\n      swap1\n      sstore\n      pop\n        /* \"contracts/Proposal.sol\":2298:2420  if (choice == 0) {... */\n    tag_43:\n        /* \"contracts/Proposal.sol\":2168:2420  if (choice == 2) {... */\n    tag_42:\n        /* \"contracts/Proposal.sol\":2037:2420  if (choice == 1) {... */\n    tag_38:\n        /* \"contracts/Proposal.sol\":2478:2479  1 */\n      0x01\n        /* \"contracts/Proposal.sol\":2464:2474  total_vote */\n      dup2\n        /* \"contracts/Proposal.sol\":2435:2443  proposal */\n      dup4\n        /* \"contracts/Proposal.sol\":2435:2461  proposal.total_vote_to_end */\n      0x04\n      add\n      sload\n        /* \"contracts/Proposal.sol\":2435:2474  proposal.total_vote_to_end - total_vote */\n      tag_46\n      swap2\n      swap1\n      tag_47\n      jump\t// in\n    tag_46:\n        /* \"contracts/Proposal.sol\":2435:2479  proposal.total_vote_to_end - total_vote == 1 */\n      eq\n        /* \"contracts/Proposal.sol\":2434:2527  (proposal.total_vote_to_end - total_vote == 1) && (choice == 1 || choice == 2 || choice == 0) */\n      dup1\n      iszero\n      tag_48\n      jumpi\n      pop\n        /* \"contracts/Proposal.sol\":2495:2496  1 */\n      0x01\n        /* \"contracts/Proposal.sol\":2485:2491  choice */\n      dup5\n        /* \"contracts/Proposal.sol\":2485:2496  choice == 1 */\n      0xff\n      and\n      eq\n        /* \"contracts/Proposal.sol\":2485:2511  choice == 1 || choice == 2 */\n      dup1\n      tag_49\n      jumpi\n      pop\n        /* \"contracts/Proposal.sol\":2510:2511  2 */\n      0x02\n        /* \"contracts/Proposal.sol\":2500:2506  choice */\n      dup5\n        /* \"contracts/Proposal.sol\":2500:2511  choice == 2 */\n      0xff\n      and\n      eq\n        /* \"contracts/Proposal.sol\":2485:2511  choice == 1 || choice == 2 */\n    tag_49:\n        /* \"contracts/Proposal.sol\":2485:2526  choice == 1 || choice == 2 || choice == 0 */\n      dup1\n      tag_50\n      jumpi\n      pop\n        /* \"contracts/Proposal.sol\":2525:2526  0 */\n      0x00\n        /* \"contracts/Proposal.sol\":2515:2521  choice */\n      dup5\n        /* \"contracts/Proposal.sol\":2515:2526  choice == 0 */\n      0xff\n      and\n      eq\n        /* \"contracts/Proposal.sol\":2485:2526  choice == 1 || choice == 2 || choice == 0 */\n    tag_50:\n        /* \"contracts/Proposal.sol\":2434:2527  (proposal.total_vote_to_end - total_vote == 1) && (choice == 1 || choice == 2 || choice == 0) */\n    tag_48:\n        /* \"contracts/Proposal.sol\":2430:2619  if ((proposal.total_vote_to_end - total_vote == 1) && (choice == 1 || choice == 2 || choice == 0)) {... */\n      iszero\n      tag_51\n      jumpi\n        /* \"contracts/Proposal.sol\":2564:2569  false */\n      0x00\n        /* \"contracts/Proposal.sol\":2543:2551  proposal */\n      dup3\n        /* \"contracts/Proposal.sol\":2543:2561  proposal.is_active */\n      0x05\n      add\n      0x01\n        /* \"contracts/Proposal.sol\":2543:2569  proposal.is_active = false */\n      0x0100\n      exp\n      dup2\n      sload\n      dup2\n      0xff\n      mul\n      not\n      and\n      swap1\n      dup4\n      iszero\n      iszero\n      mul\n      or\n      swap1\n      sstore\n      pop\n        /* \"contracts/Proposal.sol\":2583:2608  voted_addresses = [owner] */\n      mload(0x40)\n      dup1\n      0x20\n      add\n      0x40\n      mstore\n      dup1\n        /* \"contracts/Proposal.sol\":2602:2607  owner */\n      0x01\n      0x00\n      swap1\n      sload\n      swap1\n      0x0100\n      exp\n      swap1\n      div\n      0xffffffffffffffffffffffffffffffffffffffff\n      and\n        /* \"contracts/Proposal.sol\":2583:2608  voted_addresses = [owner] */\n      0xffffffffffffffffffffffffffffffffffffffff\n      and\n      0xffffffffffffffffffffffffffffffffffffffff\n      and\n      dup2\n      mstore\n      pop\n        /* \"contracts/Proposal.sol\":2583:2598  voted_addresses */\n      0x03\n        /* \"contracts/Proposal.sol\":2583:2608  voted_addresses = [owner] */\n      swap1\n      0x01\n      tag_52\n      swap3\n      swap2\n      swap1\n      tag_53\n      jump\t// in\n    tag_52:\n      pop\n        /* \"contracts/Proposal.sol\":2430:2619  if ((proposal.total_vote_to_end - total_vote == 1) && (choice == 1 || choice == 2 || choice == 0)) {... */\n    tag_51:\n        /* \"contracts/Proposal.sol\":1839:2625  {... */\n      pop\n      pop\n        /* \"contracts/Proposal.sol\":1179:1180  _ */\n      pop\n        /* \"contracts/Proposal.sol\":1775:2625  function vote(uint8 choice) external active newVoter(msg.sender){... */\n      pop\n      jump\t// out\n        /* \"contracts/Proposal.sol\":1525:1769  function create(string calldata _description, uint256 _total_vote_to_end, string memory _title) external {... */\n    tag_17:\n        /* \"contracts/Proposal.sol\":1651:1652  1 */\n      0x01\n        /* \"contracts/Proposal.sol\":1640:1647  counter */\n      0x00\n      0x00\n        /* \"contracts/Proposal.sol\":1640:1652  counter += 1 */\n      dup3\n      dup3\n      sload\n      tag_55\n      swap2\n      swap1\n      tag_31\n      jump\t// in\n    tag_55:\n      swap3\n      pop\n      pop\n      dup2\n      swap1\n      sstore\n      pop\n        /* \"contracts/Proposal.sol\":1690:1762  Proposal(_description, 0, 0, 0, _total_vote_to_end, false, true, _title) */\n      mload(0x40)\n      dup1\n      0x0100\n      add\n      0x40\n      mstore\n      dup1\n        /* \"contracts/Proposal.sol\":1699:1711  _description */\n      dup6\n      dup6\n        /* \"contracts/Proposal.sol\":1690:1762  Proposal(_description, 0, 0, 0, _total_vote_to_end, false, true, _title) */\n      dup1\n      dup1\n      0x1f\n      add\n      0x20\n      dup1\n      swap2\n      div\n      mul\n      0x20\n      add\n      mload(0x40)\n      swap1\n      dup2\n      add\n      0x40\n      mstore\n      dup1\n      swap4\n      swap3\n      swap2\n      swap1\n      dup2\n      dup2\n      mstore\n      0x20\n      add\n      dup4\n      dup4\n      dup1\n      dup3\n      dup5\n      calldatacopy\n      0x00\n      dup2\n      dup5\n      add\n      mstore\n      not(0x1f)\n      0x1f\n      dup3\n      add\n      and\n      swap1\n      pop\n      dup1\n      dup4\n      add\n      swap3\n      pop\n      pop\n      pop\n      pop\n      pop\n      pop\n      pop\n      dup2\n      mstore\n      0x20\n      add\n        /* \"contracts/Proposal.sol\":1713:1714  0 */\n      0x00\n        /* \"contracts/Proposal.sol\":1690:1762  Proposal(_description, 0, 0, 0, _total_vote_to_end, false, true, _title) */\n      dup2\n      mstore\n      0x20\n      add\n        /* \"contracts/Proposal.sol\":1716:1717  0 */\n      0x00\n        /* \"contracts/Proposal.sol\":1690:1762  Proposal(_description, 0, 0, 0, _total_vote_to_end, false, true, _title) */\n      dup2\n      mstore\n      0x20\n      add\n        /* \"contracts/Proposal.sol\":1719:1720  0 */\n      0x00\n        /* \"contracts/Proposal.sol\":1690:1762  Proposal(_description, 0, 0, 0, _total_vote_to_end, false, true, _title) */\n      dup2\n      mstore\n      0x20\n      add\n        /* \"contracts/Proposal.sol\":1722:1740  _total_vote_to_end */\n      dup4\n        /* \"contracts/Proposal.sol\":1690:1762  Proposal(_description, 0, 0, 0, _total_vote_to_end, false, true, _title) */\n      dup2\n      mstore\n      0x20\n      add\n        /* \"contracts/Proposal.sol\":1742:1747  false */\n      0x00\n        /* \"contracts/Proposal.sol\":1690:1762  Proposal(_description, 0, 0, 0, _total_vote_to_end, false, true, _title) */\n      iszero\n      iszero\n      dup2\n      mstore\n      0x20\n      add\n        /* \"contracts/Proposal.sol\":1749:1753  true */\n      0x01\n        /* \"contracts/Proposal.sol\":1690:1762  Proposal(_description, 0, 0, 0, _total_vote_to_end, false, true, _title) */\n      iszero\n      iszero\n      dup2\n      mstore\n      0x20\n      add\n        /* \"contracts/Proposal.sol\":1755:1761  _title */\n      dup3\n        /* \"contracts/Proposal.sol\":1690:1762  Proposal(_description, 0, 0, 0, _total_vote_to_end, false, true, _title) */\n      dup2\n      mstore\n      pop\n        /* \"contracts/Proposal.sol\":1662:1678  proposal_history */\n      0x02\n        /* \"contracts/Proposal.sol\":1662:1687  proposal_history[counter] */\n      0x00\n        /* \"contracts/Proposal.sol\":1679:1686  counter */\n      sload(0x00)\n        /* \"contracts/Proposal.sol\":1662:1687  proposal_history[counter] */\n      dup2\n      mstore\n      0x20\n      add\n      swap1\n      dup2\n      mstore\n      0x20\n      add\n      0x00\n      keccak256\n        /* \"contracts/Proposal.sol\":1662:1762  proposal_history[counter] = Proposal(_description, 0, 0, 0, _total_vote_to_end, false, true, _title) */\n      0x00\n      dup3\n      add\n      mload\n      dup2\n      0x00\n      add\n      swap1\n      dup2\n      tag_56\n      swap2\n      swap1\n      tag_57\n      jump\t// in\n    tag_56:\n      pop\n      0x20\n      dup3\n      add\n      mload\n      dup2\n      0x01\n      add\n      sstore\n      0x40\n      dup3\n      add\n      mload\n      dup2\n      0x02\n      add\n      sstore\n      0x60\n      dup3\n      add\n      mload\n      dup2\n      0x03\n      add\n      sstore\n      0x80\n      dup3\n      add\n      mload\n      dup2\n      0x04\n      add\n      sstore\n      0xa0\n      dup3\n      add\n      mload\n      dup2\n      0x05\n      add\n      exp(0x0100, 0x00)\n      dup2\n      sload\n      dup2\n      0xff\n      mul\n      not\n      and\n      swap1\n      dup4\n      iszero\n      iszero\n      mul\n      or\n      swap1\n      sstore\n      pop\n      0xc0\n      dup3\n      add\n      mload\n      dup2\n      0x05\n      add\n      exp(0x0100, 0x01)\n      dup2\n      sload\n      dup2\n      0xff\n      mul\n      not\n      and\n      swap1\n      dup4\n      iszero\n      iszero\n      mul\n      or\n      swap1\n      sstore\n      pop\n      0xe0\n      dup3\n      add\n      mload\n      dup2\n      0x06\n      add\n      swap1\n      dup2\n      tag_58\n      swap2\n      swap1\n      tag_57\n      jump\t// in\n    tag_58:\n      pop\n      swap1\n      pop\n      pop\n        /* \"contracts/Proposal.sol\":1525:1769  function create(string calldata _description, uint256 _total_vote_to_end, string memory _title) external {... */\n      pop\n      pop\n      pop\n      pop\n      jump\t// out\n        /* \"contracts/Proposal.sol\":1319:1423  function isVoted(address _address) private view returns(bool) {... */\n    tag_25:\n        /* \"contracts/Proposal.sol\":1375:1379  bool */\n      0x00\n        /* \"contracts/Proposal.sol\":1398:1406  hasVoted */\n      0x04\n        /* \"contracts/Proposal.sol\":1398:1416  hasVoted[_address] */\n      0x00\n        /* \"contracts/Proposal.sol\":1407:1415  _address */\n      dup4\n        /* \"contracts/Proposal.sol\":1398:1416  hasVoted[_address] */\n      0xffffffffffffffffffffffffffffffffffffffff\n      and\n      0xffffffffffffffffffffffffffffffffffffffff\n      and\n      dup2\n      mstore\n      0x20\n      add\n      swap1\n      dup2\n      mstore\n      0x20\n      add\n      0x00\n      keccak256\n      0x00\n      swap1\n      sload\n      swap1\n      0x0100\n      exp\n      swap1\n      div\n      0xff\n      and\n        /* \"contracts/Proposal.sol\":1391:1416  return hasVoted[_address] */\n      swap1\n      pop\n        /* \"contracts/Proposal.sol\":1319:1423  function isVoted(address _address) private view returns(bool) {... */\n      swap2\n      swap1\n      pop\n      jump\t// out\n        /* \"contracts/Proposal.sol\":2630:3112  function calculateCurrentState() private view returns(bool) {... */\n    tag_37:\n        /* \"contracts/Proposal.sol\":2684:2688  bool */\n      0x00\n        /* \"contracts/Proposal.sol\":2700:2725  Proposal storage proposal */\n      0x00\n        /* \"contracts/Proposal.sol\":2728:2744  proposal_history */\n      0x02\n        /* \"contracts/Proposal.sol\":2728:2753  proposal_history[counter] */\n      0x00\n        /* \"contracts/Proposal.sol\":2745:2752  counter */\n      sload(0x00)\n        /* \"contracts/Proposal.sol\":2728:2753  proposal_history[counter] */\n      dup2\n      mstore\n      0x20\n      add\n      swap1\n      dup2\n      mstore\n      0x20\n      add\n      0x00\n      keccak256\n        /* \"contracts/Proposal.sol\":2700:2753  Proposal storage proposal = proposal_history[counter] */\n      swap1\n      pop\n        /* \"contracts/Proposal.sol\":2764:2779  uint256 approve */\n      0x00\n        /* \"contracts/Proposal.sol\":2782:2790  proposal */\n      dup2\n        /* \"contracts/Proposal.sol\":2782:2798  proposal.approve */\n      0x01\n      add\n      sload\n        /* \"contracts/Proposal.sol\":2764:2798  uint256 approve = proposal.approve */\n      swap1\n      pop\n        /* \"contracts/Proposal.sol\":2808:2822  uint256 reject */\n      0x00\n        /* \"contracts/Proposal.sol\":2825:2833  proposal */\n      dup3\n        /* \"contracts/Proposal.sol\":2825:2840  proposal.reject */\n      0x02\n      add\n      sload\n        /* \"contracts/Proposal.sol\":2808:2840  uint256 reject = proposal.reject */\n      swap1\n      pop\n        /* \"contracts/Proposal.sol\":2850:2862  uint256 pass */\n      0x00\n        /* \"contracts/Proposal.sol\":2865:2873  proposal */\n      dup4\n        /* \"contracts/Proposal.sol\":2865:2878  proposal.pass */\n      0x03\n      add\n      sload\n        /* \"contracts/Proposal.sol\":2850:2878  uint256 pass = proposal.pass */\n      swap1\n      pop\n        /* \"contracts/Proposal.sol\":2925:2926  1 */\n      0x01\n        /* \"contracts/Proposal.sol\":2920:2921  2 */\n      0x02\n        /* \"contracts/Proposal.sol\":2905:2913  proposal */\n      dup6\n        /* \"contracts/Proposal.sol\":2905:2918  proposal.pass */\n      0x03\n      add\n      sload\n        /* \"contracts/Proposal.sol\":2905:2921  proposal.pass %2 */\n      tag_61\n      swap2\n      swap1\n      tag_62\n      jump\t// in\n    tag_61:\n        /* \"contracts/Proposal.sol\":2905:2926  proposal.pass %2 == 1 */\n      sub\n        /* \"contracts/Proposal.sol\":2901:2962  if (proposal.pass %2 == 1) {... */\n      tag_63\n      jumpi\n        /* \"contracts/Proposal.sol\":2950:2951  1 */\n      0x01\n        /* \"contracts/Proposal.sol\":2942:2951  pass += 1 */\n      dup2\n      tag_64\n      swap2\n      swap1\n      tag_31\n      jump\t// in\n    tag_64:\n      swap1\n      pop\n        /* \"contracts/Proposal.sol\":2901:2962  if (proposal.pass %2 == 1) {... */\n    tag_63:\n        /* \"contracts/Proposal.sol\":2986:2987  2 */\n      0x02\n        /* \"contracts/Proposal.sol\":2979:2983  pass */\n      dup2\n        /* \"contracts/Proposal.sol\":2979:2987  pass / 2 */\n      tag_65\n      swap2\n      swap1\n      tag_66\n      jump\t// in\n    tag_65:\n        /* \"contracts/Proposal.sol\":2972:2987  pass = pass / 2 */\n      swap1\n      pop\n        /* \"contracts/Proposal.sol\":3021:3025  pass */\n      dup1\n        /* \"contracts/Proposal.sol\":3012:3018  reject */\n      dup3\n        /* \"contracts/Proposal.sol\":3012:3025  reject + pass */\n      tag_67\n      swap2\n      swap1\n      tag_31\n      jump\t// in\n    tag_67:\n        /* \"contracts/Proposal.sol\":3002:3009  approve */\n      dup4\n        /* \"contracts/Proposal.sol\":3002:3025  approve > reject + pass */\n      gt\n        /* \"contracts/Proposal.sol\":2998:3106  if (approve > reject + pass) {... */\n      iszero\n      tag_68\n      jumpi\n        /* \"contracts/Proposal.sol\":3048:3052  true */\n      0x01\n        /* \"contracts/Proposal.sol\":3041:3052  return true */\n      swap5\n      pop\n      pop\n      pop\n      pop\n      pop\n      jump(tag_60)\n        /* \"contracts/Proposal.sol\":2998:3106  if (approve > reject + pass) {... */\n    tag_68:\n        /* \"contracts/Proposal.sol\":3090:3095  false */\n      0x00\n        /* \"contracts/Proposal.sol\":3083:3095  return false */\n      swap5\n      pop\n      pop\n      pop\n      pop\n      pop\n        /* \"contracts/Proposal.sol\":2630:3112  function calculateCurrentState() private view returns(bool) {... */\n    tag_60:\n      swap1\n      jump\t// out\n    tag_53:\n      dup3\n      dup1\n      sload\n      dup3\n      dup3\n      sstore\n      swap1\n      0x00\n      mstore\n      keccak256(0x00, 0x20)\n      swap1\n      dup2\n      add\n      swap3\n      dup3\n      iszero\n      tag_70\n      jumpi\n      swap2\n      0x20\n      mul\n      dup3\n      add\n    tag_71:\n      dup3\n      dup2\n      gt\n      iszero\n      tag_72\n      jumpi\n      dup3\n      mload\n      dup3\n      exp(0x0100, 0x00)\n      dup2\n      sload\n      dup2\n      0xffffffffffffffffffffffffffffffffffffffff\n      mul\n      not\n      and\n      swap1\n      dup4\n      0xffffffffffffffffffffffffffffffffffffffff\n      and\n      mul\n      or\n      swap1\n      sstore\n      pop\n      swap2\n      0x20\n      add\n      swap2\n      swap1\n      0x01\n      add\n      swap1\n      jump(tag_71)\n    tag_72:\n    tag_70:\n      pop\n      swap1\n      pop\n      tag_73\n      swap2\n      swap1\n      tag_74\n      jump\t// in\n    tag_73:\n      pop\n      swap1\n      jump\t// out\n    tag_74:\n    tag_75:\n      dup1\n      dup3\n      gt\n      iszero\n      tag_76\n      jumpi\n      0x00\n      dup2\n      0x00\n      swap1\n      sstore\n      pop\n      0x01\n      add\n      jump(tag_75)\n    tag_76:\n      pop\n      swap1\n      jump\t// out\n        /* \"#utility.yul\":7:82   */\n    tag_77:\n        /* \"#utility.yul\":40:46   */\n      0x00\n        /* \"#utility.yul\":73:75   */\n      0x40\n        /* \"#utility.yul\":67:76   */\n      mload\n        /* \"#utility.yul\":57:76   */\n      swap1\n      pop\n        /* \"#utility.yul\":7:82   */\n      swap1\n      jump\t// out\n        /* \"#utility.yul\":88:205   */\n    tag_78:\n        /* \"#utility.yul\":197:198   */\n      0x00\n        /* \"#utility.yul\":194:195   */\n      0x00\n        /* \"#utility.yul\":187:199   */\n      revert\n        /* \"#utility.yul\":211:328   */\n    tag_79:\n        /* \"#utility.yul\":320:321   */\n      0x00\n        /* \"#utility.yul\":317:318   */\n      0x00\n        /* \"#utility.yul\":310:322   */\n      revert\n        /* \"#utility.yul\":334:460   */\n    tag_80:\n        /* \"#utility.yul\":371:378   */\n      0x00\n        /* \"#utility.yul\":411:453   */\n      0xffffffffffffffffffffffffffffffffffffffff\n        /* \"#utility.yul\":404:409   */\n      dup3\n        /* \"#utility.yul\":400:454   */\n      and\n        /* \"#utility.yul\":389:454   */\n      swap1\n      pop\n        /* \"#utility.yul\":334:460   */\n      swap2\n      swap1\n      pop\n      jump\t// out\n        /* \"#utility.yul\":466:562   */\n    tag_81:\n        /* \"#utility.yul\":503:510   */\n      0x00\n        /* \"#utility.yul\":532:556   */\n      tag_132\n        /* \"#utility.yul\":550:555   */\n      dup3\n        /* \"#utility.yul\":532:556   */\n      tag_80\n      jump\t// in\n    tag_132:\n        /* \"#utility.yul\":521:556   */\n      swap1\n      pop\n        /* \"#utility.yul\":466:562   */\n      swap2\n      swap1\n      pop\n      jump\t// out\n        /* \"#utility.yul\":568:690   */\n    tag_82:\n        /* \"#utility.yul\":641:665   */\n      tag_134\n        /* \"#utility.yul\":659:664   */\n      dup2\n        /* \"#utility.yul\":641:665   */\n      tag_81\n      jump\t// in\n    tag_134:\n        /* \"#utility.yul\":634:639   */\n      dup2\n        /* \"#utility.yul\":631:666   */\n      eq\n        /* \"#utility.yul\":621:684   */\n      tag_135\n      jumpi\n        /* \"#utility.yul\":680:681   */\n      0x00\n        /* \"#utility.yul\":677:678   */\n      0x00\n        /* \"#utility.yul\":670:682   */\n      revert\n        /* \"#utility.yul\":621:684   */\n    tag_135:\n        /* \"#utility.yul\":568:690   */\n      pop\n      jump\t// out\n        /* \"#utility.yul\":696:835   */\n    tag_83:\n        /* \"#utility.yul\":742:747   */\n      0x00\n        /* \"#utility.yul\":780:786   */\n      dup2\n        /* \"#utility.yul\":767:787   */\n      calldataload\n        /* \"#utility.yul\":758:787   */\n      swap1\n      pop\n        /* \"#utility.yul\":796:829   */\n      tag_137\n        /* \"#utility.yul\":823:828   */\n      dup2\n        /* \"#utility.yul\":796:829   */\n      tag_82\n      jump\t// in\n    tag_137:\n        /* \"#utility.yul\":696:835   */\n      swap3\n      swap2\n      pop\n      pop\n      jump\t// out\n        /* \"#utility.yul\":841:1170   */\n    tag_8:\n        /* \"#utility.yul\":900:906   */\n      0x00\n        /* \"#utility.yul\":949:951   */\n      0x20\n        /* \"#utility.yul\":937:946   */\n      dup3\n        /* \"#utility.yul\":928:935   */\n      dup5\n        /* \"#utility.yul\":924:947   */\n      sub\n        /* \"#utility.yul\":920:952   */\n      slt\n        /* \"#utility.yul\":917:1036   */\n      iszero\n      tag_139\n      jumpi\n        /* \"#utility.yul\":955:1034   */\n      tag_140\n      tag_78\n      jump\t// in\n    tag_140:\n        /* \"#utility.yul\":917:1036   */\n    tag_139:\n        /* \"#utility.yul\":1075:1076   */\n      0x00\n        /* \"#utility.yul\":1100:1153   */\n      tag_141\n        /* \"#utility.yul\":1145:1152   */\n      dup5\n        /* \"#utility.yul\":1136:1142   */\n      dup3\n        /* \"#utility.yul\":1125:1134   */\n      dup6\n        /* \"#utility.yul\":1121:1143   */\n      add\n        /* \"#utility.yul\":1100:1153   */\n      tag_83\n      jump\t// in\n    tag_141:\n        /* \"#utility.yul\":1090:1153   */\n      swap2\n      pop\n        /* \"#utility.yul\":1046:1163   */\n      pop\n        /* \"#utility.yul\":841:1170   */\n      swap3\n      swap2\n      pop\n      pop\n      jump\t// out\n        /* \"#utility.yul\":1176:1262   */\n    tag_84:\n        /* \"#utility.yul\":1211:1218   */\n      0x00\n        /* \"#utility.yul\":1251:1255   */\n      0xff\n        /* \"#utility.yul\":1244:1249   */\n      dup3\n        /* \"#utility.yul\":1240:1256   */\n      and\n        /* \"#utility.yul\":1229:1256   */\n      swap1\n      pop\n        /* \"#utility.yul\":1176:1262   */\n      swap2\n      swap1\n      pop\n      jump\t// out\n        /* \"#utility.yul\":1268:1386   */\n    tag_85:\n        /* \"#utility.yul\":1339:1361   */\n      tag_144\n        /* \"#utility.yul\":1355:1360   */\n      dup2\n        /* \"#utility.yul\":1339:1361   */\n      tag_84\n      jump\t// in\n    tag_144:\n        /* \"#utility.yul\":1332:1337   */\n      dup2\n        /* \"#utility.yul\":1329:1362   */\n      eq\n        /* \"#utility.yul\":1319:1380   */\n      tag_145\n      jumpi\n        /* \"#utility.yul\":1376:1377   */\n      0x00\n        /* \"#utility.yul\":1373:1374   */\n      0x00\n        /* \"#utility.yul\":1366:1378   */\n      revert\n        /* \"#utility.yul\":1319:1380   */\n    tag_145:\n        /* \"#utility.yul\":1268:1386   */\n      pop\n      jump\t// out\n        /* \"#utility.yul\":1392:1527   */\n    tag_86:\n        /* \"#utility.yul\":1436:1441   */\n      0x00\n        /* \"#utility.yul\":1474:1480   */\n      dup2\n        /* \"#utility.yul\":1461:1481   */\n      calldataload\n        /* \"#utility.yul\":1452:1481   */\n      swap1\n      pop\n        /* \"#utility.yul\":1490:1521   */\n      tag_147\n        /* \"#utility.yul\":1515:1520   */\n      dup2\n        /* \"#utility.yul\":1490:1521   */\n      tag_85\n      jump\t// in\n    tag_147:\n        /* \"#utility.yul\":1392:1527   */\n      swap3\n      swap2\n      pop\n      pop\n      jump\t// out\n        /* \"#utility.yul\":1533:1858   */\n    tag_12:\n        /* \"#utility.yul\":1590:1596   */\n      0x00\n        /* \"#utility.yul\":1639:1641   */\n      0x20\n        /* \"#utility.yul\":1627:1636   */\n      dup3\n        /* \"#utility.yul\":1618:1625   */\n      dup5\n        /* \"#utility.yul\":1614:1637   */\n      sub\n        /* \"#utility.yul\":1610:1642   */\n      slt\n        /* \"#utility.yul\":1607:1726   */\n      iszero\n      tag_149\n      jumpi\n        /* \"#utility.yul\":1645:1724   */\n      tag_150\n      tag_78\n      jump\t// in\n    tag_150:\n        /* \"#utility.yul\":1607:1726   */\n    tag_149:\n        /* \"#utility.yul\":1765:1766   */\n      0x00\n        /* \"#utility.yul\":1790:1841   */\n      tag_151\n        /* \"#utility.yul\":1833:1840   */\n      dup5\n        /* \"#utility.yul\":1824:1830   */\n      dup3\n        /* \"#utility.yul\":1813:1822   */\n      dup6\n        /* \"#utility.yul\":1809:1831   */\n      add\n        /* \"#utility.yul\":1790:1841   */\n      tag_86\n      jump\t// in\n    tag_151:\n        /* \"#utility.yul\":1780:1841   */\n      swap2\n      pop\n        /* \"#utility.yul\":1736:1851   */\n      pop\n        /* \"#utility.yul\":1533:1858   */\n      swap3\n      swap2\n      pop\n      pop\n      jump\t// out\n        /* \"#utility.yul\":1864:1981   */\n    tag_87:\n        /* \"#utility.yul\":1973:1974   */\n      0x00\n        /* \"#utility.yul\":1970:1971   */\n      0x00\n        /* \"#utility.yul\":1963:1975   */\n      revert\n        /* \"#utility.yul\":1987:2104   */\n    tag_88:\n        /* \"#utility.yul\":2096:2097   */\n      0x00\n        /* \"#utility.yul\":2093:2094   */\n      0x00\n        /* \"#utility.yul\":2086:2098   */\n      revert\n        /* \"#utility.yul\":2110:2227   */\n    tag_89:\n        /* \"#utility.yul\":2219:2220   */\n      0x00\n        /* \"#utility.yul\":2216:2217   */\n      0x00\n        /* \"#utility.yul\":2209:2221   */\n      revert\n        /* \"#utility.yul\":2247:2800   */\n    tag_90:\n        /* \"#utility.yul\":2305:2313   */\n      0x00\n        /* \"#utility.yul\":2315:2321   */\n      0x00\n        /* \"#utility.yul\":2365:2368   */\n      dup4\n        /* \"#utility.yul\":2358:2362   */\n      0x1f\n        /* \"#utility.yul\":2350:2356   */\n      dup5\n        /* \"#utility.yul\":2346:2363   */\n      add\n        /* \"#utility.yul\":2342:2369   */\n      slt\n        /* \"#utility.yul\":2332:2454   */\n      tag_156\n      jumpi\n        /* \"#utility.yul\":2373:2452   */\n      tag_157\n      tag_87\n      jump\t// in\n    tag_157:\n        /* \"#utility.yul\":2332:2454   */\n    tag_156:\n        /* \"#utility.yul\":2486:2492   */\n      dup3\n        /* \"#utility.yul\":2473:2493   */\n      calldataload\n        /* \"#utility.yul\":2463:2493   */\n      swap1\n      pop\n        /* \"#utility.yul\":2516:2534   */\n      0xffffffffffffffff\n        /* \"#utility.yul\":2508:2514   */\n      dup2\n        /* \"#utility.yul\":2505:2535   */\n      gt\n        /* \"#utility.yul\":2502:2619   */\n      iszero\n      tag_158\n      jumpi\n        /* \"#utility.yul\":2538:2617   */\n      tag_159\n      tag_88\n      jump\t// in\n    tag_159:\n        /* \"#utility.yul\":2502:2619   */\n    tag_158:\n        /* \"#utility.yul\":2652:2656   */\n      0x20\n        /* \"#utility.yul\":2644:2650   */\n      dup4\n        /* \"#utility.yul\":2640:2657   */\n      add\n        /* \"#utility.yul\":2628:2657   */\n      swap2\n      pop\n        /* \"#utility.yul\":2706:2709   */\n      dup4\n        /* \"#utility.yul\":2698:2702   */\n      0x01\n        /* \"#utility.yul\":2690:2696   */\n      dup3\n        /* \"#utility.yul\":2686:2703   */\n      mul\n        /* \"#utility.yul\":2676:2684   */\n      dup4\n        /* \"#utility.yul\":2672:2704   */\n      add\n        /* \"#utility.yul\":2669:2710   */\n      gt\n        /* \"#utility.yul\":2666:2794   */\n      iszero\n      tag_160\n      jumpi\n        /* \"#utility.yul\":2713:2792   */\n      tag_161\n      tag_89\n      jump\t// in\n    tag_161:\n        /* \"#utility.yul\":2666:2794   */\n    tag_160:\n        /* \"#utility.yul\":2247:2800   */\n      swap3\n      pop\n      swap3\n      swap1\n      pop\n      jump\t// out\n        /* \"#utility.yul\":2806:2883   */\n    tag_91:\n        /* \"#utility.yul\":2843:2850   */\n      0x00\n        /* \"#utility.yul\":2872:2877   */\n      dup2\n        /* \"#utility.yul\":2861:2877   */\n      swap1\n      pop\n        /* \"#utility.yul\":2806:2883   */\n      swap2\n      swap1\n      pop\n      jump\t// out\n        /* \"#utility.yul\":2889:3011   */\n    tag_92:\n        /* \"#utility.yul\":2962:2986   */\n      tag_164\n        /* \"#utility.yul\":2980:2985   */\n      dup2\n        /* \"#utility.yul\":2962:2986   */\n      tag_91\n      jump\t// in\n    tag_164:\n        /* \"#utility.yul\":2955:2960   */\n      dup2\n        /* \"#utility.yul\":2952:2987   */\n      eq\n        /* \"#utility.yul\":2942:3005   */\n      tag_165\n      jumpi\n        /* \"#utility.yul\":3001:3002   */\n      0x00\n        /* \"#utility.yul\":2998:2999   */\n      0x00\n        /* \"#utility.yul\":2991:3003   */\n      revert\n        /* \"#utility.yul\":2942:3005   */\n    tag_165:\n        /* \"#utility.yul\":2889:3011   */\n      pop\n      jump\t// out\n        /* \"#utility.yul\":3017:3156   */\n    tag_93:\n        /* \"#utility.yul\":3063:3068   */\n      0x00\n        /* \"#utility.yul\":3101:3107   */\n      dup2\n        /* \"#utility.yul\":3088:3108   */\n      calldataload\n        /* \"#utility.yul\":3079:3108   */\n      swap1\n      pop\n        /* \"#utility.yul\":3117:3150   */\n      tag_167\n        /* \"#utility.yul\":3144:3149   */\n      dup2\n        /* \"#utility.yul\":3117:3150   */\n      tag_92\n      jump\t// in\n    tag_167:\n        /* \"#utility.yul\":3017:3156   */\n      swap3\n      swap2\n      pop\n      pop\n      jump\t// out\n        /* \"#utility.yul\":3162:3279   */\n    tag_94:\n        /* \"#utility.yul\":3271:3272   */\n      0x00\n        /* \"#utility.yul\":3268:3269   */\n      0x00\n        /* \"#utility.yul\":3261:3273   */\n      revert\n        /* \"#utility.yul\":3285:3387   */\n    tag_95:\n        /* \"#utility.yul\":3326:3332   */\n      0x00\n        /* \"#utility.yul\":3377:3379   */\n      0x1f\n        /* \"#utility.yul\":3373:3380   */\n      not\n        /* \"#utility.yul\":3368:3370   */\n      0x1f\n        /* \"#utility.yul\":3361:3366   */\n      dup4\n        /* \"#utility.yul\":3357:3371   */\n      add\n        /* \"#utility.yul\":3353:3381   */\n      and\n        /* \"#utility.yul\":3343:3381   */\n      swap1\n      pop\n        /* \"#utility.yul\":3285:3387   */\n      swap2\n      swap1\n      pop\n      jump\t// out\n        /* \"#utility.yul\":3393:3573   */\n    tag_96:\n        /* \"#utility.yul\":3441:3518   */\n      0x4e487b7100000000000000000000000000000000000000000000000000000000\n        /* \"#utility.yul\":3438:3439   */\n      0x00\n        /* \"#utility.yul\":3431:3519   */\n      mstore\n        /* \"#utility.yul\":3538:3542   */\n      0x41\n        /* \"#utility.yul\":3535:3536   */\n      0x04\n        /* \"#utility.yul\":3528:3543   */\n      mstore\n        /* \"#utility.yul\":3562:3566   */\n      0x24\n        /* \"#utility.yul\":3559:3560   */\n      0x00\n        /* \"#utility.yul\":3552:3567   */\n      revert\n        /* \"#utility.yul\":3579:3860   */\n    tag_97:\n        /* \"#utility.yul\":3662:3689   */\n      tag_172\n        /* \"#utility.yul\":3684:3688   */\n      dup3\n        /* \"#utility.yul\":3662:3689   */\n      tag_95\n      jump\t// in\n    tag_172:\n        /* \"#utility.yul\":3654:3660   */\n      dup2\n        /* \"#utility.yul\":3650:3690   */\n      add\n        /* \"#utility.yul\":3792:3798   */\n      dup2\n        /* \"#utility.yul\":3780:3790   */\n      dup2\n        /* \"#utility.yul\":3777:3799   */\n      lt\n        /* \"#utility.yul\":3756:3774   */\n      0xffffffffffffffff\n        /* \"#utility.yul\":3744:3754   */\n      dup3\n        /* \"#utility.yul\":3741:3775   */\n      gt\n        /* \"#utility.yul\":3738:3800   */\n      or\n        /* \"#utility.yul\":3735:3823   */\n      iszero\n      tag_173\n      jumpi\n        /* \"#utility.yul\":3803:3821   */\n      tag_174\n      tag_96\n      jump\t// in\n    tag_174:\n        /* \"#utility.yul\":3735:3823   */\n    tag_173:\n        /* \"#utility.yul\":3843:3853   */\n      dup1\n        /* \"#utility.yul\":3839:3841   */\n      0x40\n        /* \"#utility.yul\":3832:3854   */\n      mstore\n        /* \"#utility.yul\":3622:3860   */\n      pop\n        /* \"#utility.yul\":3579:3860   */\n      pop\n      pop\n      jump\t// out\n        /* \"#utility.yul\":3866:3995   */\n    tag_98:\n        /* \"#utility.yul\":3900:3906   */\n      0x00\n        /* \"#utility.yul\":3927:3947   */\n      tag_176\n      tag_77\n      jump\t// in\n    tag_176:\n        /* \"#utility.yul\":3917:3947   */\n      swap1\n      pop\n        /* \"#utility.yul\":3956:3989   */\n      tag_177\n        /* \"#utility.yul\":3984:3988   */\n      dup3\n        /* \"#utility.yul\":3976:3982   */\n      dup3\n        /* \"#utility.yul\":3956:3989   */\n      tag_97\n      jump\t// in\n    tag_177:\n        /* \"#utility.yul\":3866:3995   */\n      swap2\n      swap1\n      pop\n      jump\t// out\n        /* \"#utility.yul\":4001:4309   */\n    tag_99:\n        /* \"#utility.yul\":4063:4067   */\n      0x00\n        /* \"#utility.yul\":4153:4171   */\n      0xffffffffffffffff\n        /* \"#utility.yul\":4145:4151   */\n      dup3\n        /* \"#utility.yul\":4142:4172   */\n      gt\n        /* \"#utility.yul\":4139:4195   */\n      iszero\n      tag_179\n      jumpi\n        /* \"#utility.yul\":4175:4193   */\n      tag_180\n      tag_96\n      jump\t// in\n    tag_180:\n        /* \"#utility.yul\":4139:4195   */\n    tag_179:\n        /* \"#utility.yul\":4213:4242   */\n      tag_181\n        /* \"#utility.yul\":4235:4241   */\n      dup3\n        /* \"#utility.yul\":4213:4242   */\n      tag_95\n      jump\t// in\n    tag_181:\n        /* \"#utility.yul\":4205:4242   */\n      swap1\n      pop\n        /* \"#utility.yul\":4297:4301   */\n      0x20\n        /* \"#utility.yul\":4291:4295   */\n      dup2\n        /* \"#utility.yul\":4287:4302   */\n      add\n        /* \"#utility.yul\":4279:4302   */\n      swap1\n      pop\n        /* \"#utility.yul\":4001:4309   */\n      swap2\n      swap1\n      pop\n      jump\t// out\n        /* \"#utility.yul\":4315:4463   */\n    tag_100:\n        /* \"#utility.yul\":4413:4419   */\n      dup3\n        /* \"#utility.yul\":4408:4411   */\n      dup2\n        /* \"#utility.yul\":4403:4406   */\n      dup4\n        /* \"#utility.yul\":4390:4420   */\n      calldatacopy\n        /* \"#utility.yul\":4454:4455   */\n      0x00\n        /* \"#utility.yul\":4445:4451   */\n      dup4\n        /* \"#utility.yul\":4440:4443   */\n      dup4\n        /* \"#utility.yul\":4436:4452   */\n      add\n        /* \"#utility.yul\":4429:4456   */\n      mstore\n        /* \"#utility.yul\":4315:4463   */\n      pop\n      pop\n      pop\n      jump\t// out\n        /* \"#utility.yul\":4469:4894   */\n    tag_101:\n        /* \"#utility.yul\":4547:4552   */\n      0x00\n        /* \"#utility.yul\":4572:4638   */\n      tag_184\n        /* \"#utility.yul\":4588:4637   */\n      tag_185\n        /* \"#utility.yul\":4630:4636   */\n      dup5\n        /* \"#utility.yul\":4588:4637   */\n      tag_99\n      jump\t// in\n    tag_185:\n        /* \"#utility.yul\":4572:4638   */\n      tag_98\n      jump\t// in\n    tag_184:\n        /* \"#utility.yul\":4563:4638   */\n      swap1\n      pop\n        /* \"#utility.yul\":4661:4667   */\n      dup3\n        /* \"#utility.yul\":4654:4659   */\n      dup2\n        /* \"#utility.yul\":4647:4668   */\n      mstore\n        /* \"#utility.yul\":4699:4703   */\n      0x20\n        /* \"#utility.yul\":4692:4697   */\n      dup2\n        /* \"#utility.yul\":4688:4704   */\n      add\n        /* \"#utility.yul\":4737:4740   */\n      dup5\n        /* \"#utility.yul\":4728:4734   */\n      dup5\n        /* \"#utility.yul\":4723:4726   */\n      dup5\n        /* \"#utility.yul\":4719:4735   */\n      add\n        /* \"#utility.yul\":4716:4741   */\n      gt\n        /* \"#utility.yul\":4713:4825   */\n      iszero\n      tag_186\n      jumpi\n        /* \"#utility.yul\":4744:4823   */\n      tag_187\n      tag_94\n      jump\t// in\n    tag_187:\n        /* \"#utility.yul\":4713:4825   */\n    tag_186:\n        /* \"#utility.yul\":4834:4888   */\n      tag_188\n        /* \"#utility.yul\":4881:4887   */\n      dup5\n        /* \"#utility.yul\":4876:4879   */\n      dup3\n        /* \"#utility.yul\":4871:4874   */\n      dup6\n        /* \"#utility.yul\":4834:4888   */\n      tag_100\n      jump\t// in\n    tag_188:\n        /* \"#utility.yul\":4553:4894   */\n      pop\n        /* \"#utility.yul\":4469:4894   */\n      swap4\n      swap3\n      pop\n      pop\n      pop\n      jump\t// out\n        /* \"#utility.yul\":4914:5254   */\n    tag_102:\n        /* \"#utility.yul\":4970:4975   */\n      0x00\n        /* \"#utility.yul\":5019:5022   */\n      dup3\n        /* \"#utility.yul\":5012:5016   */\n      0x1f\n        /* \"#utility.yul\":5004:5010   */\n      dup4\n        /* \"#utility.yul\":5000:5017   */\n      add\n        /* \"#utility.yul\":4996:5023   */\n      slt\n        /* \"#utility.yul\":4986:5108   */\n      tag_190\n      jumpi\n        /* \"#utility.yul\":5027:5106   */\n      tag_191\n      tag_87\n      jump\t// in\n    tag_191:\n        /* \"#utility.yul\":4986:5108   */\n    tag_190:\n        /* \"#utility.yul\":5144:5150   */\n      dup2\n        /* \"#utility.yul\":5131:5151   */\n      calldataload\n        /* \"#utility.yul\":5169:5248   */\n      tag_192\n        /* \"#utility.yul\":5244:5247   */\n      dup5\n        /* \"#utility.yul\":5236:5242   */\n      dup3\n        /* \"#utility.yul\":5229:5233   */\n      0x20\n        /* \"#utility.yul\":5221:5227   */\n      dup7\n        /* \"#utility.yul\":5217:5234   */\n      add\n        /* \"#utility.yul\":5169:5248   */\n      tag_101\n      jump\t// in\n    tag_192:\n        /* \"#utility.yul\":5160:5248   */\n      swap2\n      pop\n        /* \"#utility.yul\":4976:5254   */\n      pop\n        /* \"#utility.yul\":4914:5254   */\n      swap3\n      swap2\n      pop\n      pop\n      jump\t// out\n        /* \"#utility.yul\":5260:6259   */\n    tag_16:\n        /* \"#utility.yul\":5359:5365   */\n      0x00\n        /* \"#utility.yul\":5367:5373   */\n      0x00\n        /* \"#utility.yul\":5375:5381   */\n      0x00\n        /* \"#utility.yul\":5383:5389   */\n      0x00\n        /* \"#utility.yul\":5432:5434   */\n      0x60\n        /* \"#utility.yul\":5420:5429   */\n      dup6\n        /* \"#utility.yul\":5411:5418   */\n      dup8\n        /* \"#utility.yul\":5407:5430   */\n      sub\n        /* \"#utility.yul\":5403:5435   */\n      slt\n        /* \"#utility.yul\":5400:5519   */\n      iszero\n      tag_194\n      jumpi\n        /* \"#utility.yul\":5438:5517   */\n      tag_195\n      tag_78\n      jump\t// in\n    tag_195:\n        /* \"#utility.yul\":5400:5519   */\n    tag_194:\n        /* \"#utility.yul\":5586:5587   */\n      0x00\n        /* \"#utility.yul\":5575:5584   */\n      dup6\n        /* \"#utility.yul\":5571:5588   */\n      add\n        /* \"#utility.yul\":5558:5589   */\n      calldataload\n        /* \"#utility.yul\":5616:5634   */\n      0xffffffffffffffff\n        /* \"#utility.yul\":5608:5614   */\n      dup2\n        /* \"#utility.yul\":5605:5635   */\n      gt\n        /* \"#utility.yul\":5602:5719   */\n      iszero\n      tag_196\n      jumpi\n        /* \"#utility.yul\":5638:5717   */\n      tag_197\n      tag_79\n      jump\t// in\n    tag_197:\n        /* \"#utility.yul\":5602:5719   */\n    tag_196:\n        /* \"#utility.yul\":5751:5816   */\n      tag_198\n        /* \"#utility.yul\":5808:5815   */\n      dup8\n        /* \"#utility.yul\":5799:5805   */\n      dup3\n        /* \"#utility.yul\":5788:5797   */\n      dup9\n        /* \"#utility.yul\":5784:5806   */\n      add\n        /* \"#utility.yul\":5751:5816   */\n      tag_90\n      jump\t// in\n    tag_198:\n        /* \"#utility.yul\":5733:5816   */\n      swap5\n      pop\n      swap5\n      pop\n        /* \"#utility.yul\":5529:5826   */\n      pop\n        /* \"#utility.yul\":5865:5867   */\n      0x20\n        /* \"#utility.yul\":5891:5944   */\n      tag_199\n        /* \"#utility.yul\":5936:5943   */\n      dup8\n        /* \"#utility.yul\":5927:5933   */\n      dup3\n        /* \"#utility.yul\":5916:5925   */\n      dup9\n        /* \"#utility.yul\":5912:5934   */\n      add\n        /* \"#utility.yul\":5891:5944   */\n      tag_93\n      jump\t// in\n    tag_199:\n        /* \"#utility.yul\":5881:5944   */\n      swap3\n      pop\n        /* \"#utility.yul\":5836:5954   */\n      pop\n        /* \"#utility.yul\":6021:6023   */\n      0x40\n        /* \"#utility.yul\":6010:6019   */\n      dup6\n        /* \"#utility.yul\":6006:6024   */\n      add\n        /* \"#utility.yul\":5993:6025   */\n      calldataload\n        /* \"#utility.yul\":6052:6070   */\n      0xffffffffffffffff\n        /* \"#utility.yul\":6044:6050   */\n      dup2\n        /* \"#utility.yul\":6041:6071   */\n      gt\n        /* \"#utility.yul\":6038:6155   */\n      iszero\n      tag_200\n      jumpi\n        /* \"#utility.yul\":6074:6153   */\n      tag_201\n      tag_79\n      jump\t// in\n    tag_201:\n        /* \"#utility.yul\":6038:6155   */\n    tag_200:\n        /* \"#utility.yul\":6179:6242   */\n      tag_202\n        /* \"#utility.yul\":6234:6241   */\n      dup8\n        /* \"#utility.yul\":6225:6231   */\n      dup3\n        /* \"#utility.yul\":6214:6223   */\n      dup9\n        /* \"#utility.yul\":6210:6232   */\n      add\n        /* \"#utility.yul\":6179:6242   */\n      tag_102\n      jump\t// in\n    tag_202:\n        /* \"#utility.yul\":6169:6242   */\n      swap2\n      pop\n        /* \"#utility.yul\":5964:6252   */\n      pop\n        /* \"#utility.yul\":5260:6259   */\n      swap3\n      swap6\n      swap2\n      swap5\n      pop\n      swap3\n      pop\n      jump\t// out\n        /* \"#utility.yul\":6265:6434   */\n    tag_103:\n        /* \"#utility.yul\":6349:6360   */\n      0x00\n        /* \"#utility.yul\":6383:6389   */\n      dup3\n        /* \"#utility.yul\":6378:6381   */\n      dup3\n        /* \"#utility.yul\":6371:6390   */\n      mstore\n        /* \"#utility.yul\":6423:6427   */\n      0x20\n        /* \"#utility.yul\":6418:6421   */\n      dup3\n        /* \"#utility.yul\":6414:6428   */\n      add\n        /* \"#utility.yul\":6399:6428   */\n      swap1\n      pop\n        /* \"#utility.yul\":6265:6434   */\n      swap3\n      swap2\n      pop\n      pop\n      jump\t// out\n        /* \"#utility.yul\":6440:6615   */\n    tag_104:\n        /* \"#utility.yul\":6580:6607   */\n      0x416464726573732068617320616c726561647920766f74656400000000000000\n        /* \"#utility.yul\":6576:6577   */\n      0x00\n        /* \"#utility.yul\":6568:6574   */\n      dup3\n        /* \"#utility.yul\":6564:6578   */\n      add\n        /* \"#utility.yul\":6557:6608   */\n      mstore\n        /* \"#utility.yul\":6440:6615   */\n      pop\n      jump\t// out\n        /* \"#utility.yul\":6621:6987   */\n    tag_105:\n        /* \"#utility.yul\":6763:6766   */\n      0x00\n        /* \"#utility.yul\":6784:6851   */\n      tag_206\n        /* \"#utility.yul\":6848:6850   */\n      0x19\n        /* \"#utility.yul\":6843:6846   */\n      dup4\n        /* \"#utility.yul\":6784:6851   */\n      tag_103\n      jump\t// in\n    tag_206:\n        /* \"#utility.yul\":6777:6851   */\n      swap2\n      pop\n        /* \"#utility.yul\":6860:6953   */\n      tag_207\n        /* \"#utility.yul\":6949:6952   */\n      dup3\n        /* \"#utility.yul\":6860:6953   */\n      tag_104\n      jump\t// in\n    tag_207:\n        /* \"#utility.yul\":6978:6980   */\n      0x20\n        /* \"#utility.yul\":6973:6976   */\n      dup3\n        /* \"#utility.yul\":6969:6981   */\n      add\n        /* \"#utility.yul\":6962:6981   */\n      swap1\n      pop\n        /* \"#utility.yul\":6621:6987   */\n      swap2\n      swap1\n      pop\n      jump\t// out\n        /* \"#utility.yul\":6993:7412   */\n    tag_28:\n        /* \"#utility.yul\":7159:7163   */\n      0x00\n        /* \"#utility.yul\":7197:7199   */\n      0x20\n        /* \"#utility.yul\":7186:7195   */\n      dup3\n        /* \"#utility.yul\":7182:7200   */\n      add\n        /* \"#utility.yul\":7174:7200   */\n      swap1\n      pop\n        /* \"#utility.yul\":7246:7255   */\n      dup2\n        /* \"#utility.yul\":7240:7244   */\n      dup2\n        /* \"#utility.yul\":7236:7256   */\n      sub\n        /* \"#utility.yul\":7232:7233   */\n      0x00\n        /* \"#utility.yul\":7221:7230   */\n      dup4\n        /* \"#utility.yul\":7217:7234   */\n      add\n        /* \"#utility.yul\":7210:7257   */\n      mstore\n        /* \"#utility.yul\":7274:7405   */\n      tag_209\n        /* \"#utility.yul\":7400:7404   */\n      dup2\n        /* \"#utility.yul\":7274:7405   */\n      tag_105\n      jump\t// in\n    tag_209:\n        /* \"#utility.yul\":7266:7405   */\n      swap1\n      pop\n        /* \"#utility.yul\":6993:7412   */\n      swap2\n      swap1\n      pop\n      jump\t// out\n        /* \"#utility.yul\":7418:7598   */\n    tag_106:\n        /* \"#utility.yul\":7466:7543   */\n      0x4e487b7100000000000000000000000000000000000000000000000000000000\n        /* \"#utility.yul\":7463:7464   */\n      0x00\n        /* \"#utility.yul\":7456:7544   */\n      mstore\n        /* \"#utility.yul\":7563:7567   */\n      0x11\n        /* \"#utility.yul\":7560:7561   */\n      0x04\n        /* \"#utility.yul\":7553:7568   */\n      mstore\n        /* \"#utility.yul\":7587:7591   */\n      0x24\n        /* \"#utility.yul\":7584:7585   */\n      0x00\n        /* \"#utility.yul\":7577:7592   */\n      revert\n        /* \"#utility.yul\":7604:7795   */\n    tag_31:\n        /* \"#utility.yul\":7644:7647   */\n      0x00\n        /* \"#utility.yul\":7663:7683   */\n      tag_212\n        /* \"#utility.yul\":7681:7682   */\n      dup3\n        /* \"#utility.yul\":7663:7683   */\n      tag_91\n      jump\t// in\n    tag_212:\n        /* \"#utility.yul\":7658:7683   */\n      swap2\n      pop\n        /* \"#utility.yul\":7697:7717   */\n      tag_213\n        /* \"#utility.yul\":7715:7716   */\n      dup4\n        /* \"#utility.yul\":7697:7717   */\n      tag_91\n      jump\t// in\n    tag_213:\n        /* \"#utility.yul\":7692:7717   */\n      swap3\n      pop\n        /* \"#utility.yul\":7740:7741   */\n      dup3\n        /* \"#utility.yul\":7737:7738   */\n      dup3\n        /* \"#utility.yul\":7733:7742   */\n      add\n        /* \"#utility.yul\":7726:7742   */\n      swap1\n      pop\n        /* \"#utility.yul\":7761:7764   */\n      dup1\n        /* \"#utility.yul\":7758:7759   */\n      dup3\n        /* \"#utility.yul\":7755:7765   */\n      gt\n        /* \"#utility.yul\":7752:7788   */\n      iszero\n      tag_214\n      jumpi\n        /* \"#utility.yul\":7768:7786   */\n      tag_215\n      tag_106\n      jump\t// in\n    tag_215:\n        /* \"#utility.yul\":7752:7788   */\n    tag_214:\n        /* \"#utility.yul\":7604:7795   */\n      swap3\n      swap2\n      pop\n      pop\n      jump\t// out\n        /* \"#utility.yul\":7801:7995   */\n    tag_47:\n        /* \"#utility.yul\":7841:7845   */\n      0x00\n        /* \"#utility.yul\":7861:7881   */\n      tag_217\n        /* \"#utility.yul\":7879:7880   */\n      dup3\n        /* \"#utility.yul\":7861:7881   */\n      tag_91\n      jump\t// in\n    tag_217:\n        /* \"#utility.yul\":7856:7881   */\n      swap2\n      pop\n        /* \"#utility.yul\":7895:7915   */\n      tag_218\n        /* \"#utility.yul\":7913:7914   */\n      dup4\n        /* \"#utility.yul\":7895:7915   */\n      tag_91\n      jump\t// in\n    tag_218:\n        /* \"#utility.yul\":7890:7915   */\n      swap3\n      pop\n        /* \"#utility.yul\":7939:7940   */\n      dup3\n        /* \"#utility.yul\":7936:7937   */\n      dup3\n        /* \"#utility.yul\":7932:7941   */\n      sub\n        /* \"#utility.yul\":7924:7941   */\n      swap1\n      pop\n        /* \"#utility.yul\":7963:7964   */\n      dup2\n        /* \"#utility.yul\":7957:7961   */\n      dup2\n        /* \"#utility.yul\":7954:7965   */\n      gt\n        /* \"#utility.yul\":7951:7988   */\n      iszero\n      tag_219\n      jumpi\n        /* \"#utility.yul\":7968:7986   */\n      tag_220\n      tag_106\n      jump\t// in\n    tag_220:\n        /* \"#utility.yul\":7951:7988   */\n    tag_219:\n        /* \"#utility.yul\":7801:7995   */\n      swap3\n      swap2\n      pop\n      pop\n      jump\t// out\n        /* \"#utility.yul\":8001:8100   */\n    tag_107:\n        /* \"#utility.yul\":8053:8059   */\n      0x00\n        /* \"#utility.yul\":8087:8092   */\n      dup2\n        /* \"#utility.yul\":8081:8093   */\n      mload\n        /* \"#utility.yul\":8071:8093   */\n      swap1\n      pop\n        /* \"#utility.yul\":8001:8100   */\n      swap2\n      swap1\n      pop\n      jump\t// out\n        /* \"#utility.yul\":8106:8286   */\n    tag_108:\n        /* \"#utility.yul\":8154:8231   */\n      0x4e487b7100000000000000000000000000000000000000000000000000000000\n        /* \"#utility.yul\":8151:8152   */\n      0x00\n        /* \"#utility.yul\":8144:8232   */\n      mstore\n        /* \"#utility.yul\":8251:8255   */\n      0x22\n        /* \"#utility.yul\":8248:8249   */\n      0x04\n        /* \"#utility.yul\":8241:8256   */\n      mstore\n        /* \"#utility.yul\":8275:8279   */\n      0x24\n        /* \"#utility.yul\":8272:8273   */\n      0x00\n        /* \"#utility.yul\":8265:8280   */\n      revert\n        /* \"#utility.yul\":8292:8612   */\n    tag_109:\n        /* \"#utility.yul\":8336:8342   */\n      0x00\n        /* \"#utility.yul\":8373:8374   */\n      0x02\n        /* \"#utility.yul\":8367:8371   */\n      dup3\n        /* \"#utility.yul\":8363:8375   */\n      div\n        /* \"#utility.yul\":8353:8375   */\n      swap1\n      pop\n        /* \"#utility.yul\":8420:8421   */\n      0x01\n        /* \"#utility.yul\":8414:8418   */\n      dup3\n        /* \"#utility.yul\":8410:8422   */\n      and\n        /* \"#utility.yul\":8441:8459   */\n      dup1\n        /* \"#utility.yul\":8431:8512   */\n      tag_224\n      jumpi\n        /* \"#utility.yul\":8497:8501   */\n      0x7f\n        /* \"#utility.yul\":8489:8495   */\n      dup3\n        /* \"#utility.yul\":8485:8502   */\n      and\n        /* \"#utility.yul\":8475:8502   */\n      swap2\n      pop\n        /* \"#utility.yul\":8431:8512   */\n    tag_224:\n        /* \"#utility.yul\":8559:8561   */\n      0x20\n        /* \"#utility.yul\":8551:8557   */\n      dup3\n        /* \"#utility.yul\":8548:8562   */\n      lt\n        /* \"#utility.yul\":8528:8546   */\n      dup2\n        /* \"#utility.yul\":8525:8563   */\n      sub\n        /* \"#utility.yul\":8522:8606   */\n      tag_225\n      jumpi\n        /* \"#utility.yul\":8578:8596   */\n      tag_226\n      tag_108\n      jump\t// in\n    tag_226:\n        /* \"#utility.yul\":8522:8606   */\n    tag_225:\n        /* \"#utility.yul\":8343:8612   */\n      pop\n        /* \"#utility.yul\":8292:8612   */\n      swap2\n      swap1\n      pop\n      jump\t// out\n        /* \"#utility.yul\":8618:8759   */\n    tag_110:\n        /* \"#utility.yul\":8667:8671   */\n      0x00\n        /* \"#utility.yul\":8690:8693   */\n      dup2\n        /* \"#utility.yul\":8682:8693   */\n      swap1\n      pop\n        /* \"#utility.yul\":8713:8716   */\n      dup2\n        /* \"#utility.yul\":8710:8711   */\n      0x00\n        /* \"#utility.yul\":8703:8717   */\n      mstore\n        /* \"#utility.yul\":8747:8751   */\n      0x20\n        /* \"#utility.yul\":8744:8745   */\n      0x00\n        /* \"#utility.yul\":8734:8752   */\n      keccak256\n        /* \"#utility.yul\":8726:8752   */\n      swap1\n      pop\n        /* \"#utility.yul\":8618:8759   */\n      swap2\n      swap1\n      pop\n      jump\t// out\n        /* \"#utility.yul\":8765:8858   */\n    tag_111:\n        /* \"#utility.yul\":8802:8808   */\n      0x00\n        /* \"#utility.yul\":8849:8851   */\n      0x20\n        /* \"#utility.yul\":8844:8846   */\n      0x1f\n        /* \"#utility.yul\":8837:8842   */\n      dup4\n        /* \"#utility.yul\":8833:8847   */\n      add\n        /* \"#utility.yul\":8829:8852   */\n      div\n        /* \"#utility.yul\":8819:8852   */\n      swap1\n      pop\n        /* \"#utility.yul\":8765:8858   */\n      swap2\n      swap1\n      pop\n      jump\t// out\n        /* \"#utility.yul\":8864:8971   */\n    tag_112:\n        /* \"#utility.yul\":8908:8916   */\n      0x00\n        /* \"#utility.yul\":8958:8963   */\n      dup3\n        /* \"#utility.yul\":8952:8956   */\n      dup3\n        /* \"#utility.yul\":8948:8964   */\n      shl\n        /* \"#utility.yul\":8927:8964   */\n      swap1\n      pop\n        /* \"#utility.yul\":8864:8971   */\n      swap3\n      swap2\n      pop\n      pop\n      jump\t// out\n        /* \"#utility.yul\":8977:9370   */\n    tag_113:\n        /* \"#utility.yul\":9046:9052   */\n      0x00\n        /* \"#utility.yul\":9096:9097   */\n      0x08\n        /* \"#utility.yul\":9084:9094   */\n      dup4\n        /* \"#utility.yul\":9080:9098   */\n      mul\n        /* \"#utility.yul\":9119:9216   */\n      tag_231\n        /* \"#utility.yul\":9149:9215   */\n      0xffffffffffffffffffffffffffffffffffffffffffffffffffffffffffffffff\n        /* \"#utility.yul\":9138:9147   */\n      dup3\n        /* \"#utility.yul\":9119:9216   */\n      tag_112\n      jump\t// in\n    tag_231:\n        /* \"#utility.yul\":9237:9276   */\n      tag_232\n        /* \"#utility.yul\":9267:9275   */\n      dup7\n        /* \"#utility.yul\":9256:9265   */\n      dup4\n        /* \"#utility.yul\":9237:9276   */\n      tag_112\n      jump\t// in\n    tag_232:\n        /* \"#utility.yul\":9225:9276   */\n      swap6\n      pop\n        /* \"#utility.yul\":9309:9313   */\n      dup1\n        /* \"#utility.yul\":9305:9314   */\n      not\n        /* \"#utility.yul\":9298:9303   */\n      dup5\n        /* \"#utility.yul\":9294:9315   */\n      and\n        /* \"#utility.yul\":9285:9315   */\n      swap4\n      pop\n        /* \"#utility.yul\":9358:9362   */\n      dup1\n        /* \"#utility.yul\":9348:9356   */\n      dup7\n        /* \"#utility.yul\":9344:9363   */\n      and\n        /* \"#utility.yul\":9337:9342   */\n      dup5\n        /* \"#utility.yul\":9334:9364   */\n      or\n        /* \"#utility.yul\":9324:9364   */\n      swap3\n      pop\n        /* \"#utility.yul\":9053:9370   */\n      pop\n      pop\n        /* \"#utility.yul\":8977:9370   */\n      swap4\n      swap3\n      pop\n      pop\n      pop\n      jump\t// out\n        /* \"#utility.yul\":9376:9436   */\n    tag_114:\n        /* \"#utility.yul\":9404:9407   */\n      0x00\n        /* \"#utility.yul\":9425:9430   */\n      dup2\n        /* \"#utility.yul\":9418:9430   */\n      swap1\n      pop\n        /* \"#utility.yul\":9376:9436   */\n      swap2\n      swap1\n      pop\n      jump\t// out\n        /* \"#utility.yul\":9442:9584   */\n    tag_115:\n        /* \"#utility.yul\":9492:9501   */\n      0x00\n        /* \"#utility.yul\":9525:9578   */\n      tag_235\n        /* \"#utility.yul\":9543:9577   */\n      tag_236\n        /* \"#utility.yul\":9552:9576   */\n      tag_237\n        /* \"#utility.yul\":9570:9575   */\n      dup5\n        /* \"#utility.yul\":9552:9576   */\n      tag_91\n      jump\t// in\n    tag_237:\n        /* \"#utility.yul\":9543:9577   */\n      tag_114\n      jump\t// in\n    tag_236:\n        /* \"#utility.yul\":9525:9578   */\n      tag_91\n      jump\t// in\n    tag_235:\n        /* \"#utility.yul\":9512:9578   */\n      swap1\n      pop\n        /* \"#utility.yul\":9442:9584   */\n      swap2\n      swap1\n      pop\n      jump\t// out\n        /* \"#utility.yul\":9590:9665   */\n    tag_116:\n        /* \"#utility.yul\":9633:9636   */\n      0x00\n        /* \"#utility.yul\":9654:9659   */\n      dup2\n        /* \"#utility.yul\":9647:9659   */\n      swap1\n      pop\n        /* \"#utility.yul\":9590:9665   */\n      swap2\n      swap1\n      pop\n      jump\t// out\n        /* \"#utility.yul\":9671:9940   */\n    tag_117:\n        /* \"#utility.yul\":9781:9820   */\n      tag_240\n        /* \"#utility.yul\":9812:9819   */\n      dup4\n        /* \"#utility.yul\":9781:9820   */\n      tag_115\n      jump\t// in\n    tag_240:\n        /* \"#utility.yul\":9842:9933   */\n      tag_241\n        /* \"#utility.yul\":9891:9932   */\n      tag_242\n        /* \"#utility.yul\":9915:9931   */\n      dup3\n        /* \"#utility.yul\":9891:9932   */\n      tag_116\n      jump\t// in\n    tag_242:\n        /* \"#utility.yul\":9883:9889   */\n      dup5\n        /* \"#utility.yul\":9876:9880   */\n      dup5\n        /* \"#utility.yul\":9870:9881   */\n      sload\n        /* \"#utility.yul\":9842:9933   */\n      tag_113\n      jump\t// in\n    tag_241:\n        /* \"#utility.yul\":9836:9840   */\n      dup3\n        /* \"#utility.yul\":9829:9934   */\n      sstore\n        /* \"#utility.yul\":9747:9940   */\n      pop\n        /* \"#utility.yul\":9671:9940   */\n      pop\n      pop\n      pop\n      jump\t// out\n        /* \"#utility.yul\":9946:10019   */\n    tag_118:\n        /* \"#utility.yul\":9991:9994   */\n      0x00\n        /* \"#utility.yul\":10012:10013   */\n      0x00\n        /* \"#utility.yul\":10005:10013   */\n      swap1\n      pop\n        /* \"#utility.yul\":9946:10019   */\n      swap1\n      jump\t// out\n        /* \"#utility.yul\":10025:10214   */\n    tag_119:\n        /* \"#utility.yul\":10102:10134   */\n      tag_245\n      tag_118\n      jump\t// in\n    tag_245:\n        /* \"#utility.yul\":10143:10208   */\n      tag_246\n        /* \"#utility.yul\":10201:10207   */\n      dup2\n        /* \"#utility.yul\":10193:10199   */\n      dup5\n        /* \"#utility.yul\":10187:10191   */\n      dup5\n        /* \"#utility.yul\":10143:10208   */\n      tag_117\n      jump\t// in\n    tag_246:\n        /* \"#utility.yul\":10078:10214   */\n      pop\n        /* \"#utility.yul\":10025:10214   */\n      pop\n      pop\n      jump\t// out\n        /* \"#utility.yul\":10220:10406   */\n    tag_120:\n        /* \"#utility.yul\":10280:10400   */\n    tag_248:\n        /* \"#utility.yul\":10297:10300   */\n      dup2\n        /* \"#utility.yul\":10290:10295   */\n      dup2\n        /* \"#utility.yul\":10287:10301   */\n      lt\n        /* \"#utility.yul\":10280:10400   */\n      iszero\n      tag_250\n      jumpi\n        /* \"#utility.yul\":10351:10390   */\n      tag_251\n        /* \"#utility.yul\":10388:10389   */\n      0x00\n        /* \"#utility.yul\":10381:10386   */\n      dup3\n        /* \"#utility.yul\":10351:10390   */\n      tag_119\n      jump\t// in\n    tag_251:\n        /* \"#utility.yul\":10324:10325   */\n      0x01\n        /* \"#utility.yul\":10317:10322   */\n      dup2\n        /* \"#utility.yul\":10313:10326   */\n      add\n        /* \"#utility.yul\":10304:10326   */\n      swap1\n      pop\n        /* \"#utility.yul\":10280:10400   */\n      jump(tag_248)\n    tag_250:\n        /* \"#utility.yul\":10220:10406   */\n      pop\n      pop\n      jump\t// out\n        /* \"#utility.yul\":10412:10955   */\n    tag_121:\n        /* \"#utility.yul\":10513:10515   */\n      0x1f\n        /* \"#utility.yul\":10508:10511   */\n      dup3\n        /* \"#utility.yul\":10505:10516   */\n      gt\n        /* \"#utility.yul\":10502:10948   */\n      iszero\n      tag_253\n      jumpi\n        /* \"#utility.yul\":10547:10585   */\n      tag_254\n        /* \"#utility.yul\":10579:10584   */\n      dup2\n        /* \"#utility.yul\":10547:10585   */\n      tag_110\n      jump\t// in\n    tag_254:\n        /* \"#utility.yul\":10631:10660   */\n      tag_255\n        /* \"#utility.yul\":10649:10659   */\n      dup5\n        /* \"#utility.yul\":10631:10660   */\n      tag_111\n      jump\t// in\n    tag_255:\n        /* \"#utility.yul\":10621:10629   */\n      dup2\n        /* \"#utility.yul\":10617:10661   */\n      add\n        /* \"#utility.yul\":10814:10816   */\n      0x20\n        /* \"#utility.yul\":10802:10812   */\n      dup6\n        /* \"#utility.yul\":10799:10817   */\n      lt\n        /* \"#utility.yul\":10796:10845   */\n      iszero\n      tag_256\n      jumpi\n        /* \"#utility.yul\":10835:10843   */\n      dup2\n        /* \"#utility.yul\":10820:10843   */\n      swap1\n      pop\n        /* \"#utility.yul\":10796:10845   */\n    tag_256:\n        /* \"#utility.yul\":10858:10938   */\n      tag_257\n        /* \"#utility.yul\":10914:10936   */\n      tag_258\n        /* \"#utility.yul\":10932:10935   */\n      dup6\n        /* \"#utility.yul\":10914:10936   */\n      tag_111\n      jump\t// in\n    tag_258:\n        /* \"#utility.yul\":10904:10912   */\n      dup4\n        /* \"#utility.yul\":10900:10937   */\n      add\n        /* \"#utility.yul\":10887:10898   */\n      dup3\n        /* \"#utility.yul\":10858:10938   */\n      tag_120\n      jump\t// in\n    tag_257:\n        /* \"#utility.yul\":10517:10948   */\n      pop\n      pop\n        /* \"#utility.yul\":10502:10948   */\n    tag_253:\n        /* \"#utility.yul\":10412:10955   */\n      pop\n      pop\n      pop\n      jump\t// out\n        /* \"#utility.yul\":10961:11078   */\n    tag_122:\n        /* \"#utility.yul\":11015:11023   */\n      0x00\n        /* \"#utility.yul\":11065:11070   */\n      dup3\n        /* \"#utility.yul\":11059:11063   */\n      dup3\n        /* \"#utility.yul\":11055:11071   */\n      shr\n        /* \"#utility.yul\":11034:11071   */\n      swap1\n      pop\n        /* \"#utility.yul\":10961:11078   */\n      swap3\n      swap2\n      pop\n      pop\n      jump\t// out\n        /* \"#utility.yul\":11084:11253   */\n    tag_123:\n        /* \"#utility.yul\":11128:11134   */\n      0x00\n        /* \"#utility.yul\":11161:11212   */\n      tag_261\n        /* \"#utility.yul\":11209:11210   */\n      0x00\n        /* \"#utility.yul\":11205:11211   */\n      not\n        /* \"#utility.yul\":11197:11202   */\n      dup5\n        /* \"#utility.yul\":11194:11195   */\n      0x08\n        /* \"#utility.yul\":11190:11203   */\n      mul\n        /* \"#utility.yul\":11161:11212   */\n      tag_122\n      jump\t// in\n    tag_261:\n        /* \"#utility.yul\":11157:11213   */\n      not\n        /* \"#utility.yul\":11242:11246   */\n      dup1\n        /* \"#utility.yul\":11236:11240   */\n      dup4\n        /* \"#utility.yul\":11232:11247   */\n      and\n        /* \"#utility.yul\":11222:11247   */\n      swap2\n      pop\n        /* \"#utility.yul\":11135:11253   */\n      pop\n        /* \"#utility.yul\":11084:11253   */\n      swap3\n      swap2\n      pop\n      pop\n      jump\t// out\n        /* \"#utility.yul\":11258:11553   */\n    tag_124:\n        /* \"#utility.yul\":11334:11338   */\n      0x00\n        /* \"#utility.yul\":11480:11509   */\n      tag_263\n        /* \"#utility.yul\":11505:11508   */\n      dup4\n        /* \"#utility.yul\":11499:11503   */\n      dup4\n        /* \"#utility.yul\":11480:11509   */\n      tag_123\n      jump\t// in\n    tag_263:\n        /* \"#utility.yul\":11472:11509   */\n      swap2\n      pop\n        /* \"#utility.yul\":11542:11545   */\n      dup3\n        /* \"#utility.yul\":11539:11540   */\n      0x02\n        /* \"#utility.yul\":11535:11546   */\n      mul\n        /* \"#utility.yul\":11529:11533   */\n      dup3\n        /* \"#utility.yul\":11526:11547   */\n      or\n        /* \"#utility.yul\":11518:11547   */\n      swap1\n      pop\n        /* \"#utility.yul\":11258:11553   */\n      swap3\n      swap2\n      pop\n      pop\n      jump\t// out\n        /* \"#utility.yul\":11558:12953   */\n    tag_57:\n        /* \"#utility.yul\":11675:11712   */\n      tag_265\n        /* \"#utility.yul\":11708:11711   */\n      dup3\n        /* \"#utility.yul\":11675:11712   */\n      tag_107\n      jump\t// in\n    tag_265:\n        /* \"#utility.yul\":11777:11795   */\n      0xffffffffffffffff\n        /* \"#utility.yul\":11769:11775   */\n      dup2\n        /* \"#utility.yul\":11766:11796   */\n      gt\n        /* \"#utility.yul\":11763:11819   */\n      iszero\n      tag_266\n      jumpi\n        /* \"#utility.yul\":11799:11817   */\n      tag_267\n      tag_96\n      jump\t// in\n    tag_267:\n        /* \"#utility.yul\":11763:11819   */\n    tag_266:\n        /* \"#utility.yul\":11843:11881   */\n      tag_268\n        /* \"#utility.yul\":11875:11879   */\n      dup3\n        /* \"#utility.yul\":11869:11880   */\n      sload\n        /* \"#utility.yul\":11843:11881   */\n      tag_109\n      jump\t// in\n    tag_268:\n        /* \"#utility.yul\":11928:11995   */\n      tag_269\n        /* \"#utility.yul\":11988:11994   */\n      dup3\n        /* \"#utility.yul\":11980:11986   */\n      dup3\n        /* \"#utility.yul\":11974:11978   */\n      dup6\n        /* \"#utility.yul\":11928:11995   */\n      tag_121\n      jump\t// in\n    tag_269:\n        /* \"#utility.yul\":12022:12023   */\n      0x00\n        /* \"#utility.yul\":12046:12050   */\n      0x20\n        /* \"#utility.yul\":12033:12050   */\n      swap1\n      pop\n        /* \"#utility.yul\":12078:12080   */\n      0x1f\n        /* \"#utility.yul\":12070:12076   */\n      dup4\n        /* \"#utility.yul\":12067:12081   */\n      gt\n        /* \"#utility.yul\":12095:12096   */\n      0x01\n        /* \"#utility.yul\":12090:12708   */\n      dup2\n      eq\n      tag_271\n      jumpi\n        /* \"#utility.yul\":12752:12753   */\n      0x00\n        /* \"#utility.yul\":12769:12775   */\n      dup5\n        /* \"#utility.yul\":12766:12843   */\n      iszero\n      tag_272\n      jumpi\n        /* \"#utility.yul\":12818:12827   */\n      dup3\n        /* \"#utility.yul\":12813:12816   */\n      dup8\n        /* \"#utility.yul\":12809:12828   */\n      add\n        /* \"#utility.yul\":12803:12829   */\n      mload\n        /* \"#utility.yul\":12794:12829   */\n      swap1\n      pop\n        /* \"#utility.yul\":12766:12843   */\n    tag_272:\n        /* \"#utility.yul\":12869:12936   */\n      tag_273\n        /* \"#utility.yul\":12929:12935   */\n      dup6\n        /* \"#utility.yul\":12922:12927   */\n      dup3\n        /* \"#utility.yul\":12869:12936   */\n      tag_124\n      jump\t// in\n    tag_273:\n        /* \"#utility.yul\":12863:12867   */\n      dup7\n        /* \"#utility.yul\":12856:12937   */\n      sstore\n        /* \"#utility.yul\":12725:12947   */\n      pop\n        /* \"#utility.yul\":12060:12947   */\n      jump(tag_270)\n        /* \"#utility.yul\":12090:12708   */\n    tag_271:\n        /* \"#utility.yul\":12142:12146   */\n      0x1f\n        /* \"#utility.yul\":12138:12147   */\n      not\n        /* \"#utility.yul\":12130:12136   */\n      dup5\n        /* \"#utility.yul\":12126:12148   */\n      and\n        /* \"#utility.yul\":12176:12213   */\n      tag_274\n        /* \"#utility.yul\":12208:12212   */\n      dup7\n        /* \"#utility.yul\":12176:12213   */\n      tag_110\n      jump\t// in\n    tag_274:\n        /* \"#utility.yul\":12235:12236   */\n      0x00\n        /* \"#utility.yul\":12249:12457   */\n    tag_275:\n        /* \"#utility.yul\":12263:12270   */\n      dup3\n        /* \"#utility.yul\":12260:12261   */\n      dup2\n        /* \"#utility.yul\":12257:12271   */\n      lt\n        /* \"#utility.yul\":12249:12457   */\n      iszero\n      tag_277\n      jumpi\n        /* \"#utility.yul\":12342:12351   */\n      dup5\n        /* \"#utility.yul\":12337:12340   */\n      dup10\n        /* \"#utility.yul\":12333:12352   */\n      add\n        /* \"#utility.yul\":12327:12353   */\n      mload\n        /* \"#utility.yul\":12319:12325   */\n      dup3\n        /* \"#utility.yul\":12312:12354   */\n      sstore\n        /* \"#utility.yul\":12393:12394   */\n      0x01\n        /* \"#utility.yul\":12385:12391   */\n      dup3\n        /* \"#utility.yul\":12381:12395   */\n      add\n        /* \"#utility.yul\":12371:12395   */\n      swap2\n      pop\n        /* \"#utility.yul\":12440:12442   */\n      0x20\n        /* \"#utility.yul\":12429:12438   */\n      dup6\n        /* \"#utility.yul\":12425:12443   */\n      add\n        /* \"#utility.yul\":12412:12443   */\n      swap5\n      pop\n        /* \"#utility.yul\":12286:12290   */\n      0x20\n        /* \"#utility.yul\":12283:12284   */\n      dup2\n        /* \"#utility.yul\":12279:12291   */\n      add\n        /* \"#utility.yul\":12274:12291   */\n      swap1\n      pop\n        /* \"#utility.yul\":12249:12457   */\n      jump(tag_275)\n    tag_277:\n        /* \"#utility.yul\":12485:12491   */\n      dup7\n        /* \"#utility.yul\":12476:12483   */\n      dup4\n        /* \"#utility.yul\":12473:12492   */\n      lt\n        /* \"#utility.yul\":12470:12649   */\n      iszero\n      tag_278\n      jumpi\n        /* \"#utility.yul\":12543:12552   */\n      dup5\n        /* \"#utility.yul\":12538:12541   */\n      dup10\n        /* \"#utility.yul\":12534:12553   */\n      add\n        /* \"#utility.yul\":12528:12554   */\n      mload\n        /* \"#utility.yul\":12586:12634   */\n      tag_279\n        /* \"#utility.yul\":12628:12632   */\n      0x1f\n        /* \"#utility.yul\":12620:12626   */\n      dup10\n        /* \"#utility.yul\":12616:12633   */\n      and\n        /* \"#utility.yul\":12605:12614   */\n      dup3\n        /* \"#utility.yul\":12586:12634   */\n      tag_123\n      jump\t// in\n    tag_279:\n        /* \"#utility.yul\":12578:12584   */\n      dup4\n        /* \"#utility.yul\":12571:12635   */\n      sstore\n        /* \"#utility.yul\":12493:12649   */\n      pop\n        /* \"#utility.yul\":12470:12649   */\n    tag_278:\n        /* \"#utility.yul\":12695:12696   */\n      0x01\n        /* \"#utility.yul\":12691:12692   */\n      0x02\n        /* \"#utility.yul\":12683:12689   */\n      dup9\n        /* \"#utility.yul\":12679:12693   */\n      mul\n        /* \"#utility.yul\":12675:12697   */\n      add\n        /* \"#utility.yul\":12669:12673   */\n      dup9\n        /* \"#utility.yul\":12662:12698   */\n      sstore\n        /* \"#utility.yul\":12097:12708   */\n      pop\n      pop\n      pop\n        /* \"#utility.yul\":12060:12947   */\n    tag_270:\n      pop\n        /* \"#utility.yul\":11650:12953   */\n      pop\n      pop\n      pop\n        /* \"#utility.yul\":11558:12953   */\n      pop\n      pop\n      jump\t// out\n        /* \"#utility.yul\":12959:13139   */\n    tag_125:\n        /* \"#utility.yul\":13007:13084   */\n      0x4e487b7100000000000000000000000000000000000000000000000000000000\n        /* \"#utility.yul\":13004:13005   */\n      0x00\n        /* \"#utility.yul\":12997:13085   */\n      mstore\n        /* \"#utility.yul\":13104:13108   */\n      0x12\n        /* \"#utility.yul\":13101:13102   */\n      0x04\n        /* \"#utility.yul\":13094:13109   */\n      mstore\n        /* \"#utility.yul\":13128:13132   */\n      0x24\n        /* \"#utility.yul\":13125:13126   */\n      0x00\n        /* \"#utility.yul\":13118:13133   */\n      revert\n        /* \"#utility.yul\":13145:13321   */\n    tag_62:\n        /* \"#utility.yul\":13177:13178   */\n      0x00\n        /* \"#utility.yul\":13194:13214   */\n      tag_282\n        /* \"#utility.yul\":13212:13213   */\n      dup3\n        /* \"#utility.yul\":13194:13214   */\n      tag_91\n      jump\t// in\n    tag_282:\n        /* \"#utility.yul\":13189:13214   */\n      swap2\n      pop\n        /* \"#utility.yul\":13228:13248   */\n      tag_283\n        /* \"#utility.yul\":13246:13247   */\n      dup4\n        /* \"#utility.yul\":13228:13248   */\n      tag_91\n      jump\t// in\n    tag_283:\n        /* \"#utility.yul\":13223:13248   */\n      swap3\n      pop\n        /* \"#utility.yul\":13267:13268   */\n      dup3\n        /* \"#utility.yul\":13257:13292   */\n      tag_284\n      jumpi\n        /* \"#utility.yul\":13272:13290   */\n      tag_285\n      tag_125\n      jump\t// in\n    tag_285:\n        /* \"#utility.yul\":13257:13292   */\n    tag_284:\n        /* \"#utility.yul\":13313:13314   */\n      dup3\n        /* \"#utility.yul\":13310:13311   */\n      dup3\n        /* \"#utility.yul\":13306:13315   */\n      mod\n        /* \"#utility.yul\":13301:13315   */\n      swap1\n      pop\n        /* \"#utility.yul\":13145:13321   */\n      swap3\n      swap2\n      pop\n      pop\n      jump\t// out\n        /* \"#utility.yul\":13327:13512   */\n    tag_66:\n        /* \"#utility.yul\":13367:13368   */\n      0x00\n        /* \"#utility.yul\":13384:13404   */\n      tag_287\n        /* \"#utility.yul\":13402:13403   */\n      dup3\n        /* \"#utility.yul\":13384:13404   */\n      tag_91\n      jump\t// in\n    tag_287:\n        /* \"#utility.yul\":13379:13404   */\n      swap2\n      pop\n        /* \"#utility.yul\":13418:13438   */\n      tag_288\n        /* \"#utility.yul\":13436:13437   */\n      dup4\n        /* \"#utility.yul\":13418:13438   */\n      tag_91\n      jump\t// in\n    tag_288:\n        /* \"#utility.yul\":13413:13438   */\n      swap3\n      pop\n        /* \"#utility.yul\":13457:13458   */\n      dup3\n        /* \"#utility.yul\":13447:13482   */\n      tag_289\n      jumpi\n        /* \"#utility.yul\":13462:13480   */\n      tag_290\n      tag_125\n      jump\t// in\n    tag_290:\n        /* \"#utility.yul\":13447:13482   */\n    tag_289:\n        /* \"#utility.yul\":13504:13505   */\n      dup3\n        /* \"#utility.yul\":13501:13502   */\n      dup3\n        /* \"#utility.yul\":13497:13506   */\n      div\n        /* \"#utility.yul\":13492:13506   */\n      swap1\n      pop\n        /* \"#utility.yul\":13327:13512   */\n      swap3\n      swap2\n      pop\n      pop\n      jump\t// out\n\n    auxdata: 0xa26469706673582212207e5f077dd3ccfebbdc1db164f4d63a3dd5d05ff36c80e0985bc545f147bf11ef64736f6c634300081e0033\n}\n",
				"bytecode": {
					"linkReferences": {},
					"object": "6080604052348015600e575f5ffd5b503360015f6101000a81548173ffffffffffffffffffffffffffffffffffffffff021916908373ffffffffffffffffffffffffffffffffffffffff160217905550600333908060018154018082558091505060019003905f5260205f20015f9091909190916101000a81548173ffffffffffffffffffffffffffffffffffffffff021916908373ffffffffffffffffffffffffffffffffffffffff160217905550610ebd806100bc5f395ff3fe608060405234801561000f575f5ffd5b506004361061003f575f3560e01c806313af403514610043578063b3f98adc1461005f578063e257a3711461007b575b5f5ffd5b61005d60048036038101906100589190610734565b610097565b005b61007960048036038101906100749190610795565b610132565b005b6100956004803603810190610090919061098c565b6103ff565b005b60015f9054906101000a900473ffffffffffffffffffffffffffffffffffffffff1673ffffffffffffffffffffffffffffffffffffffff163373ffffffffffffffffffffffffffffffffffffffff16146100ef575f5ffd5b8060015f6101000a81548173ffffffffffffffffffffffffffffffffffffffff021916908373ffffffffffffffffffffffffffffffffffffffff16021790555050565b6001151560025f5f5481526020019081526020015f2060050160019054906101000a900460ff16151514610164575f5ffd5b3361016e81610545565b156101ae576040517f08c379a00000000000000000000000000000000000000000000000000000000081526004016101a590610a73565b60405180910390fd5b5f60025f5f5481526020019081526020015f2090505f8160030154826002015483600101546101dd9190610abe565b6101e79190610abe565b9050600333908060018154018082558091505060019003905f5260205f20015f9091909190916101000a81548173ffffffffffffffffffffffffffffffffffffffff021916908373ffffffffffffffffffffffffffffffffffffffff16021790555060018460ff1603610296576001826001015f8282546102689190610abe565b92505081905550610277610597565b826005015f6101000a81548160ff02191690831515021790555061032d565b60028460ff16036102e3576001826002015f8282546102b59190610abe565b925050819055506102c4610597565b826005015f6101000a81548160ff02191690831515021790555061032c565b5f8460ff160361032b576001826003015f8282546103019190610abe565b92505081905550610310610597565b826005015f6101000a81548160ff0219169083151502179055505b5b5b600181836004015461033f9190610af1565b14801561036a575060018460ff16148061035c575060028460ff16145b8061036957505f8460ff16145b5b156103f9575f8260050160016101000a81548160ff021916908315150217905550604051806020016040528060015f9054906101000a900473ffffffffffffffffffffffffffffffffffffffff1673ffffffffffffffffffffffffffffffffffffffff1673ffffffffffffffffffffffffffffffffffffffff1681525060039060016103f7929190610627565b505b50505050565b60015f5f8282546104109190610abe565b9250508190555060405180610100016040528085858080601f0160208091040260200160405190810160405280939291908181526020018383808284375f81840152601f19601f8201169050808301925050505050505081526020015f81526020015f81526020015f81526020018381526020015f151581526020016001151581526020018281525060025f5f5481526020019081526020015f205f820151815f0190816104be9190610d2b565b506020820151816001015560408201518160020155606082015181600301556080820151816004015560a0820151816005015f6101000a81548160ff02191690831515021790555060c08201518160050160016101000a81548160ff02191690831515021790555060e082015181600601908161053b9190610d2b565b5090505050505050565b5f60045f8373ffffffffffffffffffffffffffffffffffffffff1673ffffffffffffffffffffffffffffffffffffffff1681526020019081526020015f205f9054906101000a900460ff169050919050565b5f5f60025f5f5481526020019081526020015f2090505f816001015490505f826002015490505f836003015490506001600285600301546105d89190610e27565b036105ed576001816105ea9190610abe565b90505b6002816105fa9190610e57565b905080826106089190610abe565b83111561061c576001945050505050610624565b5f9450505050505b90565b828054828255905f5260205f2090810192821561069d579160200282015b8281111561069c578251825f6101000a81548173ffffffffffffffffffffffffffffffffffffffff021916908373ffffffffffffffffffffffffffffffffffffffff16021790555091602001919060010190610645565b5b5090506106aa91906106ae565b5090565b5b808211156106c5575f815f9055506001016106af565b5090565b5f604051905090565b5f5ffd5b5f5ffd5b5f73ffffffffffffffffffffffffffffffffffffffff82169050919050565b5f610703826106da565b9050919050565b610713816106f9565b811461071d575f5ffd5b50565b5f8135905061072e8161070a565b92915050565b5f60208284031215610749576107486106d2565b5b5f61075684828501610720565b91505092915050565b5f60ff82169050919050565b6107748161075f565b811461077e575f5ffd5b50565b5f8135905061078f8161076b565b92915050565b5f602082840312156107aa576107a96106d2565b5b5f6107b784828501610781565b91505092915050565b5f5ffd5b5f5ffd5b5f5ffd5b5f5f83601f8401126107e1576107e06107c0565b5b8235905067ffffffffffffffff8111156107fe576107fd6107c4565b5b60208301915083600182028301111561081a576108196107c8565b5b9250929050565b5f819050919050565b61083381610821565b811461083d575f5ffd5b50565b5f8135905061084e8161082a565b92915050565b5f5ffd5b5f601f19601f8301169050919050565b7f4e487b71000000000000000000000000000000000000000000000000000000005f52604160045260245ffd5b61089e82610858565b810181811067ffffffffffffffff821117156108bd576108bc610868565b5b80604052505050565b5f6108cf6106c9565b90506108db8282610895565b919050565b5f67ffffffffffffffff8211156108fa576108f9610868565b5b61090382610858565b9050602081019050919050565b828183375f83830152505050565b5f61093061092b846108e0565b6108c6565b90508281526020810184848401111561094c5761094b610854565b5b610957848285610910565b509392505050565b5f82601f830112610973576109726107c0565b5b813561098384826020860161091e565b91505092915050565b5f5f5f5f606085870312156109a4576109a36106d2565b5b5f85013567ffffffffffffffff8111156109c1576109c06106d6565b5b6109cd878288016107cc565b945094505060206109e087828801610840565b925050604085013567ffffffffffffffff811115610a0157610a006106d6565b5b610a0d8782880161095f565b91505092959194509250565b5f82825260208201905092915050565b7f416464726573732068617320616c726561647920766f746564000000000000005f82015250565b5f610a5d601983610a19565b9150610a6882610a29565b602082019050919050565b5f6020820190508181035f830152610a8a81610a51565b9050919050565b7f4e487b71000000000000000000000000000000000000000000000000000000005f52601160045260245ffd5b5f610ac882610821565b9150610ad383610821565b9250828201905080821115610aeb57610aea610a91565b5b92915050565b5f610afb82610821565b9150610b0683610821565b9250828203905081811115610b1e57610b1d610a91565b5b92915050565b5f81519050919050565b7f4e487b71000000000000000000000000000000000000000000000000000000005f52602260045260245ffd5b5f6002820490506001821680610b7257607f821691505b602082108103610b8557610b84610b2e565b5b50919050565b5f819050815f5260205f209050919050565b5f6020601f8301049050919050565b5f82821b905092915050565b5f60088302610be77fffffffffffffffffffffffffffffffffffffffffffffffffffffffffffffffff82610bac565b610bf18683610bac565b95508019841693508086168417925050509392505050565b5f819050919050565b5f610c2c610c27610c2284610821565b610c09565b610821565b9050919050565b5f819050919050565b610c4583610c12565b610c59610c5182610c33565b848454610bb8565b825550505050565b5f5f905090565b610c70610c61565b610c7b818484610c3c565b505050565b5b81811015610c9e57610c935f82610c68565b600181019050610c81565b5050565b601f821115610ce357610cb481610b8b565b610cbd84610b9d565b81016020851015610ccc578190505b610ce0610cd885610b9d565b830182610c80565b50505b505050565b5f82821c905092915050565b5f610d035f1984600802610ce8565b1980831691505092915050565b5f610d1b8383610cf4565b9150826002028217905092915050565b610d3482610b24565b67ffffffffffffffff811115610d4d57610d4c610868565b5b610d578254610b5b565b610d62828285610ca2565b5f60209050601f831160018114610d93575f8415610d81578287015190505b610d8b8582610d10565b865550610df2565b601f198416610da186610b8b565b5f5b82811015610dc857848901518255600182019150602085019450602081019050610da3565b86831015610de55784890151610de1601f891682610cf4565b8355505b6001600288020188555050505b505050505050565b7f4e487b71000000000000000000000000000000000000000000000000000000005f52601260045260245ffd5b5f610e3182610821565b9150610e3c83610821565b925082610e4c57610e4b610dfa565b5b828206905092915050565b5f610e6182610821565b9150610e6c83610821565b925082610e7c57610e7b610dfa565b5b82820490509291505056fea26469706673582212207e5f077dd3ccfebbdc1db164f4d63a3dd5d05ff36c80e0985bc545f147bf11ef64736f6c634300081e0033",
					"opcodes": "PUSH1 0x80 PUSH1 0x40 MSTORE CALLVALUE DUP1 ISZERO PUSH1 0xE JUMPI PUSH0 PUSH0 REVERT JUMPDEST POP CALLER PUSH1 0x1 PUSH0 PUSH2 0x100 EXP DUP2 SLOAD DUP2 PUSH20 0xFFFFFFFFFFFFFFFFFFFFFFFFFFFFFFFFFFFFFFFF MUL NOT AND SWAP1 DUP4 PUSH20 0xFFFFFFFFFFFFFFFFFFFFFFFFFFFFFFFFFFFFFFFF AND MUL OR SWAP1 SSTORE POP PUSH1 0x3 CALLER SWAP1 DUP1 PUSH1 0x1 DUP2 SLOAD ADD DUP1 DUP3 SSTORE DUP1 SWAP2 POP POP PUSH1 0x1 SWAP1 SUB SWAP1 PUSH0 MSTORE PUSH1 0x20 PUSH0 KECCAK256 ADD PUSH0 SWAP1 SWAP2 SWAP1 SWAP2 SWAP1 SWAP2 PUSH2 0x100 EXP DUP2 SLOAD DUP2 PUSH20 0xFFFFFFFFFFFFFFFFFFFFFFFFFFFFFFFFFFFFFFFF MUL NOT AND SWAP1 DUP4 PUSH20 0xFFFFFFFFFFFFFFFFFFFFFFFFFFFFFFFFFFFFFFFF AND MUL OR SWAP1 SSTORE POP PUSH2 0xEBD DUP1 PUSH2 0xBC PUSH0 CODECOPY PUSH0 RETURN INVALID PUSH1 0x80 PUSH1 0x40 MSTORE CALLVALUE DUP1 ISZERO PUSH2 0xF JUMPI PUSH0 PUSH0 REVERT JUMPDEST POP PUSH1 0x4 CALLDATASIZE LT PUSH2 0x3F JUMPI PUSH0 CALLDATALOAD PUSH1 0xE0 SHR DUP1 PUSH4 0x13AF4035 EQ PUSH2 0x43 JUMPI DUP1 PUSH4 0xB3F98ADC EQ PUSH2 0x5F JUMPI DUP1 PUSH4 0xE257A371 EQ PUSH2 0x7B JUMPI JUMPDEST PUSH0 PUSH0 REVERT JUMPDEST PUSH2 0x5D PUSH1 0x4 DUP1 CALLDATASIZE SUB DUP2 ADD SWAP1 PUSH2 0x58 SWAP2 SWAP1 PUSH2 0x734 JUMP JUMPDEST PUSH2 0x97 JUMP JUMPDEST STOP JUMPDEST PUSH2 0x79 PUSH1 0x4 DUP1 CALLDATASIZE SUB DUP2 ADD SWAP1 PUSH2 0x74 SWAP2 SWAP1 PUSH2 0x795 JUMP JUMPDEST PUSH2 0x132 JUMP JUMPDEST STOP JUMPDEST PUSH2 0x95 PUSH1 0x4 DUP1 CALLDATASIZE SUB DUP2 ADD SWAP1 PUSH2 0x90 SWAP2 SWAP1 PUSH2 0x98C JUMP JUMPDEST PUSH2 0x3FF JUMP JUMPDEST STOP JUMPDEST PUSH1 0x1 PUSH0 SWAP1 SLOAD SWAP1 PUSH2 0x100 EXP SWAP1 DIV PUSH20 0xFFFFFFFFFFFFFFFFFFFFFFFFFFFFFFFFFFFFFFFF AND PUSH20 0xFFFFFFFFFFFFFFFFFFFFFFFFFFFFFFFFFFFFFFFF AND CALLER PUSH20 0xFFFFFFFFFFFFFFFFFFFFFFFFFFFFFFFFFFFFFFFF AND EQ PUSH2 0xEF JUMPI PUSH0 PUSH0 REVERT JUMPDEST DUP1 PUSH1 0x1 PUSH0 PUSH2 0x100 EXP DUP2 SLOAD DUP2 PUSH20 0xFFFFFFFFFFFFFFFFFFFFFFFFFFFFFFFFFFFFFFFF MUL NOT AND SWAP1 DUP4 PUSH20 0xFFFFFFFFFFFFFFFFFFFFFFFFFFFFFFFFFFFFFFFF AND MUL OR SWAP1 SSTORE POP POP JUMP JUMPDEST PUSH1 0x1 ISZERO ISZERO PUSH1 0x2 PUSH0 PUSH0 SLOAD DUP2 MSTORE PUSH1 0x20 ADD SWAP1 DUP2 MSTORE PUSH1 0x20 ADD PUSH0 KECCAK256 PUSH1 0x5 ADD PUSH1 0x1 SWAP1 SLOAD SWAP1 PUSH2 0x100 EXP SWAP1 DIV PUSH1 0xFF AND ISZERO ISZERO EQ PUSH2 0x164 JUMPI PUSH0 PUSH0 REVERT JUMPDEST CALLER PUSH2 0x16E DUP2 PUSH2 0x545 JUMP JUMPDEST ISZERO PUSH2 0x1AE JUMPI PUSH1 0x40 MLOAD PUSH32 0x8C379A000000000000000000000000000000000000000000000000000000000 DUP2 MSTORE PUSH1 0x4 ADD PUSH2 0x1A5 SWAP1 PUSH2 0xA73 JUMP JUMPDEST PUSH1 0x40 MLOAD DUP1 SWAP2 SUB SWAP1 REVERT JUMPDEST PUSH0 PUSH1 0x2 PUSH0 PUSH0 SLOAD DUP2 MSTORE PUSH1 0x20 ADD SWAP1 DUP2 MSTORE PUSH1 0x20 ADD PUSH0 KECCAK256 SWAP1 POP PUSH0 DUP2 PUSH1 0x3 ADD SLOAD DUP3 PUSH1 0x2 ADD SLOAD DUP4 PUSH1 0x1 ADD SLOAD PUSH2 0x1DD SWAP2 SWAP1 PUSH2 0xABE JUMP JUMPDEST PUSH2 0x1E7 SWAP2 SWAP1 PUSH2 0xABE JUMP JUMPDEST SWAP1 POP PUSH1 0x3 CALLER SWAP1 DUP1 PUSH1 0x1 DUP2 SLOAD ADD DUP1 DUP3 SSTORE DUP1 SWAP2 POP POP PUSH1 0x1 SWAP1 SUB SWAP1 PUSH0 MSTORE PUSH1 0x20 PUSH0 KECCAK256 ADD PUSH0 SWAP1 SWAP2 SWAP1 SWAP2 SWAP1 SWAP2 PUSH2 0x100 EXP DUP2 SLOAD DUP2 PUSH20 0xFFFFFFFFFFFFFFFFFFFFFFFFFFFFFFFFFFFFFFFF MUL NOT AND SWAP1 DUP4 PUSH20 0xFFFFFFFFFFFFFFFFFFFFFFFFFFFFFFFFFFFFFFFF AND MUL OR SWAP1 SSTORE POP PUSH1 0x1 DUP5 PUSH1 0xFF AND SUB PUSH2 0x296 JUMPI PUSH1 0x1 DUP3 PUSH1 0x1 ADD PUSH0 DUP3 DUP3 SLOAD PUSH2 0x268 SWAP2 SWAP1 PUSH2 0xABE JUMP JUMPDEST SWAP3 POP POP DUP2 SWAP1 SSTORE POP PUSH2 0x277 PUSH2 0x597 JUMP JUMPDEST DUP3 PUSH1 0x5 ADD PUSH0 PUSH2 0x100 EXP DUP2 SLOAD DUP2 PUSH1 0xFF MUL NOT AND SWAP1 DUP4 ISZERO ISZERO MUL OR SWAP1 SSTORE POP PUSH2 0x32D JUMP JUMPDEST PUSH1 0x2 DUP5 PUSH1 0xFF AND SUB PUSH2 0x2E3 JUMPI PUSH1 0x1 DUP3 PUSH1 0x2 ADD PUSH0 DUP3 DUP3 SLOAD PUSH2 0x2B5 SWAP2 SWAP1 PUSH2 0xABE JUMP JUMPDEST SWAP3 POP POP DUP2 SWAP1 SSTORE POP PUSH2 0x2C4 PUSH2 0x597 JUMP JUMPDEST DUP3 PUSH1 0x5 ADD PUSH0 PUSH2 0x100 EXP DUP2 SLOAD DUP2 PUSH1 0xFF MUL NOT AND SWAP1 DUP4 ISZERO ISZERO MUL OR SWAP1 SSTORE POP PUSH2 0x32C JUMP JUMPDEST PUSH0 DUP5 PUSH1 0xFF AND SUB PUSH2 0x32B JUMPI PUSH1 0x1 DUP3 PUSH1 0x3 ADD PUSH0 DUP3 DUP3 SLOAD PUSH2 0x301 SWAP2 SWAP1 PUSH2 0xABE JUMP JUMPDEST SWAP3 POP POP DUP2 SWAP1 SSTORE POP PUSH2 0x310 PUSH2 0x597 JUMP JUMPDEST DUP3 PUSH1 0x5 ADD PUSH0 PUSH2 0x100 EXP DUP2 SLOAD DUP2 PUSH1 0xFF MUL NOT AND SWAP1 DUP4 ISZERO ISZERO MUL OR SWAP1 SSTORE POP JUMPDEST JUMPDEST JUMPDEST PUSH1 0x1 DUP2 DUP4 PUSH1 0x4 ADD SLOAD PUSH2 0x33F SWAP2 SWAP1 PUSH2 0xAF1 JUMP JUMPDEST EQ DUP1 ISZERO PUSH2 0x36A JUMPI POP PUSH1 0x1 DUP5 PUSH1 0xFF AND EQ DUP1 PUSH2 0x35C JUMPI POP PUSH1 0x2 DUP5 PUSH1 0xFF AND EQ JUMPDEST DUP1 PUSH2 0x369 JUMPI POP PUSH0 DUP5 PUSH1 0xFF AND EQ JUMPDEST JUMPDEST ISZERO PUSH2 0x3F9 JUMPI PUSH0 DUP3 PUSH1 0x5 ADD PUSH1 0x1 PUSH2 0x100 EXP DUP2 SLOAD DUP2 PUSH1 0xFF MUL NOT AND SWAP1 DUP4 ISZERO ISZERO MUL OR SWAP1 SSTORE POP PUSH1 0x40 MLOAD DUP1 PUSH1 0x20 ADD PUSH1 0x40 MSTORE DUP1 PUSH1 0x1 PUSH0 SWAP1 SLOAD SWAP1 PUSH2 0x100 EXP SWAP1 DIV PUSH20 0xFFFFFFFFFFFFFFFFFFFFFFFFFFFFFFFFFFFFFFFF AND PUSH20 0xFFFFFFFFFFFFFFFFFFFFFFFFFFFFFFFFFFFFFFFF AND PUSH20 0xFFFFFFFFFFFFFFFFFFFFFFFFFFFFFFFFFFFFFFFF AND DUP2 MSTORE POP PUSH1 0x3 SWAP1 PUSH1 0x1 PUSH2 0x3F7 SWAP3 SWAP2 SWAP1 PUSH2 0x627 JUMP JUMPDEST POP JUMPDEST POP POP POP POP JUMP JUMPDEST PUSH1 0x1 PUSH0 PUSH0 DUP3 DUP3 SLOAD PUSH2 0x410 SWAP2 SWAP1 PUSH2 0xABE JUMP JUMPDEST SWAP3 POP POP DUP2 SWAP1 SSTORE POP PUSH1 0x40 MLOAD DUP1 PUSH2 0x100 ADD PUSH1 0x40 MSTORE DUP1 DUP6 DUP6 DUP1 DUP1 PUSH1 0x1F ADD PUSH1 0x20 DUP1 SWAP2 DIV MUL PUSH1 0x20 ADD PUSH1 0x40 MLOAD SWAP1 DUP2 ADD PUSH1 0x40 MSTORE DUP1 SWAP4 SWAP3 SWAP2 SWAP1 DUP2 DUP2 MSTORE PUSH1 0x20 ADD DUP4 DUP4 DUP1 DUP3 DUP5 CALLDATACOPY PUSH0 DUP2 DUP5 ADD MSTORE PUSH1 0x1F NOT PUSH1 0x1F DUP3 ADD AND SWAP1 POP DUP1 DUP4 ADD SWAP3 POP POP POP POP POP POP POP DUP2 MSTORE PUSH1 0x20 ADD PUSH0 DUP2 MSTORE PUSH1 0x20 ADD PUSH0 DUP2 MSTORE PUSH1 0x20 ADD PUSH0 DUP2 MSTORE PUSH1 0x20 ADD DUP4 DUP2 MSTORE PUSH1 0x20 ADD PUSH0 ISZERO ISZERO DUP2 MSTORE PUSH1 0x20 ADD PUSH1 0x1 ISZERO ISZERO DUP2 MSTORE PUSH1 0x20 ADD DUP3 DUP2 MSTORE POP PUSH1 0x2 PUSH0 PUSH0 SLOAD DUP2 MSTORE PUSH1 0x20 ADD SWAP1 DUP2 MSTORE PUSH1 0x20 ADD PUSH0 KECCAK256 PUSH0 DUP3 ADD MLOAD DUP2 PUSH0 ADD SWAP1 DUP2 PUSH2 0x4BE SWAP2 SWAP1 PUSH2 0xD2B JUMP JUMPDEST POP PUSH1 0x20 DUP3 ADD MLOAD DUP2 PUSH1 0x1 ADD SSTORE PUSH1 0x40 DUP3 ADD MLOAD DUP2 PUSH1 0x2 ADD SSTORE PUSH1 0x60 DUP3 ADD MLOAD DUP2 PUSH1 0x3 ADD SSTORE PUSH1 0x80 DUP3 ADD MLOAD DUP2 PUSH1 0x4 ADD SSTORE PUSH1 0xA0 DUP3 ADD MLOAD DUP2 PUSH1 0x5 ADD PUSH0 PUSH2 0x100 EXP DUP2 SLOAD DUP2 PUSH1 0xFF MUL NOT AND SWAP1 DUP4 ISZERO ISZERO MUL OR SWAP1 SSTORE POP PUSH1 0xC0 DUP3 ADD MLOAD DUP2 PUSH1 0x5 ADD PUSH1 0x1 PUSH2 0x100 EXP DUP2 SLOAD DUP2 PUSH1 0xFF MUL NOT AND SWAP1 DUP4 ISZERO ISZERO MUL OR SWAP1 SSTORE POP PUSH1 0xE0 DUP3 ADD MLOAD DUP2 PUSH1 0x6 ADD SWAP1 DUP2 PUSH2 0x53B SWAP2 SWAP1 PUSH2 0xD2B JUMP JUMPDEST POP SWAP1 POP POP POP POP POP POP JUMP JUMPDEST PUSH0 PUSH1 0x4 PUSH0 DUP4 PUSH20 0xFFFFFFFFFFFFFFFFFFFFFFFFFFFFFFFFFFFFFFFF AND PUSH20 0xFFFFFFFFFFFFFFFFFFFFFFFFFFFFFFFFFFFFFFFF AND DUP2 MSTORE PUSH1 0x20 ADD SWAP1 DUP2 MSTORE PUSH1 0x20 ADD PUSH0 KECCAK256 PUSH0 SWAP1 SLOAD SWAP1 PUSH2 0x100 EXP SWAP1 DIV PUSH1 0xFF AND SWAP1 POP SWAP2 SWAP1 POP JUMP JUMPDEST PUSH0 PUSH0 PUSH1 0x2 PUSH0 PUSH0 SLOAD DUP2 MSTORE PUSH1 0x20 ADD SWAP1 DUP2 MSTORE PUSH1 0x20 ADD PUSH0 KECCAK256 SWAP1 POP PUSH0 DUP2 PUSH1 0x1 ADD SLOAD SWAP1 POP PUSH0 DUP3 PUSH1 0x2 ADD SLOAD SWAP1 POP PUSH0 DUP4 PUSH1 0x3 ADD SLOAD SWAP1 POP PUSH1 0x1 PUSH1 0x2 DUP6 PUSH1 0x3 ADD SLOAD PUSH2 0x5D8 SWAP2 SWAP1 PUSH2 0xE27 JUMP JUMPDEST SUB PUSH2 0x5ED JUMPI PUSH1 0x1 DUP2 PUSH2 0x5EA SWAP2 SWAP1 PUSH2 0xABE JUMP JUMPDEST SWAP1 POP JUMPDEST PUSH1 0x2 DUP2 PUSH2 0x5FA SWAP2 SWAP1 PUSH2 0xE57 JUMP JUMPDEST SWAP1 POP DUP1 DUP3 PUSH2 0x608 SWAP2 SWAP1 PUSH2 0xABE JUMP JUMPDEST DUP4 GT ISZERO PUSH2 0x61C JUMPI PUSH1 0x1 SWAP5 POP POP POP POP POP PUSH2 0x624 JUMP JUMPDEST PUSH0 SWAP5 POP POP POP POP POP JUMPDEST SWAP1 JUMP JUMPDEST DUP3 DUP1 SLOAD DUP3 DUP3 SSTORE SWAP1 PUSH0 MSTORE PUSH1 0x20 PUSH0 KECCAK256 SWAP1 DUP2 ADD SWAP3 DUP3 ISZERO PUSH2 0x69D JUMPI SWAP2 PUSH1 0x20 MUL DUP3 ADD JUMPDEST DUP3 DUP2 GT ISZERO PUSH2 0x69C JUMPI DUP3 MLOAD DUP3 PUSH0 PUSH2 0x100 EXP DUP2 SLOAD DUP2 PUSH20 0xFFFFFFFFFFFFFFFFFFFFFFFFFFFFFFFFFFFFFFFF MUL NOT AND SWAP1 DUP4 PUSH20 0xFFFFFFFFFFFFFFFFFFFFFFFFFFFFFFFFFFFFFFFF AND MUL OR SWAP1 SSTORE POP SWAP2 PUSH1 0x20 ADD SWAP2 SWAP1 PUSH1 0x1 ADD SWAP1 PUSH2 0x645 JUMP JUMPDEST JUMPDEST POP SWAP1 POP PUSH2 0x6AA SWAP2 SWAP1 PUSH2 0x6AE JUMP JUMPDEST POP SWAP1 JUMP JUMPDEST JUMPDEST DUP1 DUP3 GT ISZERO PUSH2 0x6C5 JUMPI PUSH0 DUP2 PUSH0 SWAP1 SSTORE POP PUSH1 0x1 ADD PUSH2 0x6AF JUMP JUMPDEST POP SWAP1 JUMP JUMPDEST PUSH0 PUSH1 0x40 MLOAD SWAP1 POP SWAP1 JUMP JUMPDEST PUSH0 PUSH0 REVERT JUMPDEST PUSH0 PUSH0 REVERT JUMPDEST PUSH0 PUSH20 0xFFFFFFFFFFFFFFFFFFFFFFFFFFFFFFFFFFFFFFFF DUP3 AND SWAP1 POP SWAP2 SWAP1 POP JUMP JUMPDEST PUSH0 PUSH2 0x703 DUP3 PUSH2 0x6DA JUMP JUMPDEST SWAP1 POP SWAP2 SWAP1 POP JUMP JUMPDEST PUSH2 0x713 DUP2 PUSH2 0x6F9 JUMP JUMPDEST DUP2 EQ PUSH2 0x71D JUMPI PUSH0 PUSH0 REVERT JUMPDEST POP JUMP JUMPDEST PUSH0 DUP2 CALLDATALOAD SWAP1 POP PUSH2 0x72E DUP2 PUSH2 0x70A JUMP JUMPDEST SWAP3 SWAP2 POP POP JUMP JUMPDEST PUSH0 PUSH1 0x20 DUP3 DUP5 SUB SLT ISZERO PUSH2 0x749 JUMPI PUSH2 0x748 PUSH2 0x6D2 JUMP JUMPDEST JUMPDEST PUSH0 PUSH2 0x756 DUP5 DUP3 DUP6 ADD PUSH2 0x720 JUMP JUMPDEST SWAP2 POP POP SWAP3 SWAP2 POP POP JUMP JUMPDEST PUSH0 PUSH1 0xFF DUP3 AND SWAP1 POP SWAP2 SWAP1 POP JUMP JUMPDEST PUSH2 0x774 DUP2 PUSH2 0x75F JUMP JUMPDEST DUP2 EQ PUSH2 0x77E JUMPI PUSH0 PUSH0 REVERT JUMPDEST POP JUMP JUMPDEST PUSH0 DUP2 CALLDATALOAD SWAP1 POP PUSH2 0x78F DUP2 PUSH2 0x76B JUMP JUMPDEST SWAP3 SWAP2 POP POP JUMP JUMPDEST PUSH0 PUSH1 0x20 DUP3 DUP5 SUB SLT ISZERO PUSH2 0x7AA JUMPI PUSH2 0x7A9 PUSH2 0x6D2 JUMP JUMPDEST JUMPDEST PUSH0 PUSH2 0x7B7 DUP5 DUP3 DUP6 ADD PUSH2 0x781 JUMP JUMPDEST SWAP2 POP POP SWAP3 SWAP2 POP POP JUMP JUMPDEST PUSH0 PUSH0 REVERT JUMPDEST PUSH0 PUSH0 REVERT JUMPDEST PUSH0 PUSH0 REVERT JUMPDEST PUSH0 PUSH0 DUP4 PUSH1 0x1F DUP5 ADD SLT PUSH2 0x7E1 JUMPI PUSH2 0x7E0 PUSH2 0x7C0 JUMP JUMPDEST JUMPDEST DUP3 CALLDATALOAD SWAP1 POP PUSH8 0xFFFFFFFFFFFFFFFF DUP2 GT ISZERO PUSH2 0x7FE JUMPI PUSH2 0x7FD PUSH2 0x7C4 JUMP JUMPDEST JUMPDEST PUSH1 0x20 DUP4 ADD SWAP2 POP DUP4 PUSH1 0x1 DUP3 MUL DUP4 ADD GT ISZERO PUSH2 0x81A JUMPI PUSH2 0x819 PUSH2 0x7C8 JUMP JUMPDEST JUMPDEST SWAP3 POP SWAP3 SWAP1 POP JUMP JUMPDEST PUSH0 DUP2 SWAP1 POP SWAP2 SWAP1 POP JUMP JUMPDEST PUSH2 0x833 DUP2 PUSH2 0x821 JUMP JUMPDEST DUP2 EQ PUSH2 0x83D JUMPI PUSH0 PUSH0 REVERT JUMPDEST POP JUMP JUMPDEST PUSH0 DUP2 CALLDATALOAD SWAP1 POP PUSH2 0x84E DUP2 PUSH2 0x82A JUMP JUMPDEST SWAP3 SWAP2 POP POP JUMP JUMPDEST PUSH0 PUSH0 REVERT JUMPDEST PUSH0 PUSH1 0x1F NOT PUSH1 0x1F DUP4 ADD AND SWAP1 POP SWAP2 SWAP1 POP JUMP JUMPDEST PUSH32 0x4E487B7100000000000000000000000000000000000000000000000000000000 PUSH0 MSTORE PUSH1 0x41 PUSH1 0x4 MSTORE PUSH1 0x24 PUSH0 REVERT JUMPDEST PUSH2 0x89E DUP3 PUSH2 0x858 JUMP JUMPDEST DUP2 ADD DUP2 DUP2 LT PUSH8 0xFFFFFFFFFFFFFFFF DUP3 GT OR ISZERO PUSH2 0x8BD JUMPI PUSH2 0x8BC PUSH2 0x868 JUMP JUMPDEST JUMPDEST DUP1 PUSH1 0x40 MSTORE POP POP POP JUMP JUMPDEST PUSH0 PUSH2 0x8CF PUSH2 0x6C9 JUMP JUMPDEST SWAP1 POP PUSH2 0x8DB DUP3 DUP3 PUSH2 0x895 JUMP JUMPDEST SWAP2 SWAP1 POP JUMP JUMPDEST PUSH0 PUSH8 0xFFFFFFFFFFFFFFFF DUP3 GT ISZERO PUSH2 0x8FA JUMPI PUSH2 0x8F9 PUSH2 0x868 JUMP JUMPDEST JUMPDEST PUSH2 0x903 DUP3 PUSH2 0x858 JUMP JUMPDEST SWAP1 POP PUSH1 0x20 DUP2 ADD SWAP1 POP SWAP2 SWAP1 POP JUMP JUMPDEST DUP3 DUP2 DUP4 CALLDATACOPY PUSH0 DUP4 DUP4 ADD MSTORE POP POP POP JUMP JUMPDEST PUSH0 PUSH2 0x930 PUSH2 0x92B DUP5 PUSH2 0x8E0 JUMP JUMPDEST PUSH2 0x8C6 JUMP JUMPDEST SWAP1 POP DUP3 DUP2 MSTORE PUSH1 0x20 DUP2 ADD DUP5 DUP5 DUP5 ADD GT ISZERO PUSH2 0x94C JUMPI PUSH2 0x94B PUSH2 0x854 JUMP JUMPDEST JUMPDEST PUSH2 0x957 DUP5 DUP3 DUP6 PUSH2 0x910 JUMP JUMPDEST POP SWAP4 SWAP3 POP POP POP JUMP JUMPDEST PUSH0 DUP3 PUSH1 0x1F DUP4 ADD SLT PUSH2 0x973 JUMPI PUSH2 0x972 PUSH2 0x7C0 JUMP JUMPDEST JUMPDEST DUP2 CALLDATALOAD PUSH2 0x983 DUP5 DUP3 PUSH1 0x20 DUP7 ADD PUSH2 0x91E JUMP JUMPDEST SWAP2 POP POP SWAP3 SWAP2 POP POP JUMP JUMPDEST PUSH0 PUSH0 PUSH0 PUSH0 PUSH1 0x60 DUP6 DUP8 SUB SLT ISZERO PUSH2 0x9A4 JUMPI PUSH2 0x9A3 PUSH2 0x6D2 JUMP JUMPDEST JUMPDEST PUSH0 DUP6 ADD CALLDATALOAD PUSH8 0xFFFFFFFFFFFFFFFF DUP2 GT ISZERO PUSH2 0x9C1 JUMPI PUSH2 0x9C0 PUSH2 0x6D6 JUMP JUMPDEST JUMPDEST PUSH2 0x9CD DUP8 DUP3 DUP9 ADD PUSH2 0x7CC JUMP JUMPDEST SWAP5 POP SWAP5 POP POP PUSH1 0x20 PUSH2 0x9E0 DUP8 DUP3 DUP9 ADD PUSH2 0x840 JUMP JUMPDEST SWAP3 POP POP PUSH1 0x40 DUP6 ADD CALLDATALOAD PUSH8 0xFFFFFFFFFFFFFFFF DUP2 GT ISZERO PUSH2 0xA01 JUMPI PUSH2 0xA00 PUSH2 0x6D6 JUMP JUMPDEST JUMPDEST PUSH2 0xA0D DUP8 DUP3 DUP9 ADD PUSH2 0x95F JUMP JUMPDEST SWAP2 POP POP SWAP3 SWAP6 SWAP2 SWAP5 POP SWAP3 POP JUMP JUMPDEST PUSH0 DUP3 DUP3 MSTORE PUSH1 0x20 DUP3 ADD SWAP1 POP SWAP3 SWAP2 POP POP JUMP JUMPDEST PUSH32 0x416464726573732068617320616C726561647920766F74656400000000000000 PUSH0 DUP3 ADD MSTORE POP JUMP JUMPDEST PUSH0 PUSH2 0xA5D PUSH1 0x19 DUP4 PUSH2 0xA19 JUMP JUMPDEST SWAP2 POP PUSH2 0xA68 DUP3 PUSH2 0xA29 JUMP JUMPDEST PUSH1 0x20 DUP3 ADD SWAP1 POP SWAP2 SWAP1 POP JUMP JUMPDEST PUSH0 PUSH1 0x20 DUP3 ADD SWAP1 POP DUP2 DUP2 SUB PUSH0 DUP4 ADD MSTORE PUSH2 0xA8A DUP2 PUSH2 0xA51 JUMP JUMPDEST SWAP1 POP SWAP2 SWAP1 POP JUMP JUMPDEST PUSH32 0x4E487B7100000000000000000000000000000000000000000000000000000000 PUSH0 MSTORE PUSH1 0x11 PUSH1 0x4 MSTORE PUSH1 0x24 PUSH0 REVERT JUMPDEST PUSH0 PUSH2 0xAC8 DUP3 PUSH2 0x821 JUMP JUMPDEST SWAP2 POP PUSH2 0xAD3 DUP4 PUSH2 0x821 JUMP JUMPDEST SWAP3 POP DUP3 DUP3 ADD SWAP1 POP DUP1 DUP3 GT ISZERO PUSH2 0xAEB JUMPI PUSH2 0xAEA PUSH2 0xA91 JUMP JUMPDEST JUMPDEST SWAP3 SWAP2 POP POP JUMP JUMPDEST PUSH0 PUSH2 0xAFB DUP3 PUSH2 0x821 JUMP JUMPDEST SWAP2 POP PUSH2 0xB06 DUP4 PUSH2 0x821 JUMP JUMPDEST SWAP3 POP DUP3 DUP3 SUB SWAP1 POP DUP2 DUP2 GT ISZERO PUSH2 0xB1E JUMPI PUSH2 0xB1D PUSH2 0xA91 JUMP JUMPDEST JUMPDEST SWAP3 SWAP2 POP POP JUMP JUMPDEST PUSH0 DUP2 MLOAD SWAP1 POP SWAP2 SWAP1 POP JUMP JUMPDEST PUSH32 0x4E487B7100000000000000000000000000000000000000000000000000000000 PUSH0 MSTORE PUSH1 0x22 PUSH1 0x4 MSTORE PUSH1 0x24 PUSH0 REVERT JUMPDEST PUSH0 PUSH1 0x2 DUP3 DIV SWAP1 POP PUSH1 0x1 DUP3 AND DUP1 PUSH2 0xB72 JUMPI PUSH1 0x7F DUP3 AND SWAP2 POP JUMPDEST PUSH1 0x20 DUP3 LT DUP2 SUB PUSH2 0xB85 JUMPI PUSH2 0xB84 PUSH2 0xB2E JUMP JUMPDEST JUMPDEST POP SWAP2 SWAP1 POP JUMP JUMPDEST PUSH0 DUP2 SWAP1 POP DUP2 PUSH0 MSTORE PUSH1 0x20 PUSH0 KECCAK256 SWAP1 POP SWAP2 SWAP1 POP JUMP JUMPDEST PUSH0 PUSH1 0x20 PUSH1 0x1F DUP4 ADD DIV SWAP1 POP SWAP2 SWAP1 POP JUMP JUMPDEST PUSH0 DUP3 DUP3 SHL SWAP1 POP SWAP3 SWAP2 POP POP JUMP JUMPDEST PUSH0 PUSH1 0x8 DUP4 MUL PUSH2 0xBE7 PUSH32 0xFFFFFFFFFFFFFFFFFFFFFFFFFFFFFFFFFFFFFFFFFFFFFFFFFFFFFFFFFFFFFFFF DUP3 PUSH2 0xBAC JUMP JUMPDEST PUSH2 0xBF1 DUP7 DUP4 PUSH2 0xBAC JUMP JUMPDEST SWAP6 POP DUP1 NOT DUP5 AND SWAP4 POP DUP1 DUP7 AND DUP5 OR SWAP3 POP POP POP SWAP4 SWAP3 POP POP POP JUMP JUMPDEST PUSH0 DUP2 SWAP1 POP SWAP2 SWAP1 POP JUMP JUMPDEST PUSH0 PUSH2 0xC2C PUSH2 0xC27 PUSH2 0xC22 DUP5 PUSH2 0x821 JUMP JUMPDEST PUSH2 0xC09 JUMP JUMPDEST PUSH2 0x821 JUMP JUMPDEST SWAP1 POP SWAP2 SWAP1 POP JUMP JUMPDEST PUSH0 DUP2 SWAP1 POP SWAP2 SWAP1 POP JUMP JUMPDEST PUSH2 0xC45 DUP4 PUSH2 0xC12 JUMP JUMPDEST PUSH2 0xC59 PUSH2 0xC51 DUP3 PUSH2 0xC33 JUMP JUMPDEST DUP5 DUP5 SLOAD PUSH2 0xBB8 JUMP JUMPDEST DUP3 SSTORE POP POP POP POP JUMP JUMPDEST PUSH0 PUSH0 SWAP1 POP SWAP1 JUMP JUMPDEST PUSH2 0xC70 PUSH2 0xC61 JUMP JUMPDEST PUSH2 0xC7B DUP2 DUP5 DUP5 PUSH2 0xC3C JUMP JUMPDEST POP POP POP JUMP JUMPDEST JUMPDEST DUP2 DUP2 LT ISZERO PUSH2 0xC9E JUMPI PUSH2 0xC93 PUSH0 DUP3 PUSH2 0xC68 JUMP JUMPDEST PUSH1 0x1 DUP2 ADD SWAP1 POP PUSH2 0xC81 JUMP JUMPDEST POP POP JUMP JUMPDEST PUSH1 0x1F DUP3 GT ISZERO PUSH2 0xCE3 JUMPI PUSH2 0xCB4 DUP2 PUSH2 0xB8B JUMP JUMPDEST PUSH2 0xCBD DUP5 PUSH2 0xB9D JUMP JUMPDEST DUP2 ADD PUSH1 0x20 DUP6 LT ISZERO PUSH2 0xCCC JUMPI DUP2 SWAP1 POP JUMPDEST PUSH2 0xCE0 PUSH2 0xCD8 DUP6 PUSH2 0xB9D JUMP JUMPDEST DUP4 ADD DUP3 PUSH2 0xC80 JUMP JUMPDEST POP POP JUMPDEST POP POP POP JUMP JUMPDEST PUSH0 DUP3 DUP3 SHR SWAP1 POP SWAP3 SWAP2 POP POP JUMP JUMPDEST PUSH0 PUSH2 0xD03 PUSH0 NOT DUP5 PUSH1 0x8 MUL PUSH2 0xCE8 JUMP JUMPDEST NOT DUP1 DUP4 AND SWAP2 POP POP SWAP3 SWAP2 POP POP JUMP JUMPDEST PUSH0 PUSH2 0xD1B DUP4 DUP4 PUSH2 0xCF4 JUMP JUMPDEST SWAP2 POP DUP3 PUSH1 0x2 MUL DUP3 OR SWAP1 POP SWAP3 SWAP2 POP POP JUMP JUMPDEST PUSH2 0xD34 DUP3 PUSH2 0xB24 JUMP JUMPDEST PUSH8 0xFFFFFFFFFFFFFFFF DUP2 GT ISZERO PUSH2 0xD4D JUMPI PUSH2 0xD4C PUSH2 0x868 JUMP JUMPDEST JUMPDEST PUSH2 0xD57 DUP3 SLOAD PUSH2 0xB5B JUMP JUMPDEST PUSH2 0xD62 DUP3 DUP3 DUP6 PUSH2 0xCA2 JUMP JUMPDEST PUSH0 PUSH1 0x20 SWAP1 POP PUSH1 0x1F DUP4 GT PUSH1 0x1 DUP2 EQ PUSH2 0xD93 JUMPI PUSH0 DUP5 ISZERO PUSH2 0xD81 JUMPI DUP3 DUP8 ADD MLOAD SWAP1 POP JUMPDEST PUSH2 0xD8B DUP6 DUP3 PUSH2 0xD10 JUMP JUMPDEST DUP7 SSTORE POP PUSH2 0xDF2 JUMP JUMPDEST PUSH1 0x1F NOT DUP5 AND PUSH2 0xDA1 DUP7 PUSH2 0xB8B JUMP JUMPDEST PUSH0 JUMPDEST DUP3 DUP2 LT ISZERO PUSH2 0xDC8 JUMPI DUP5 DUP10 ADD MLOAD DUP3 SSTORE PUSH1 0x1 DUP3 ADD SWAP2 POP PUSH1 0x20 DUP6 ADD SWAP5 POP PUSH1 0x20 DUP2 ADD SWAP1 POP PUSH2 0xDA3 JUMP JUMPDEST DUP7 DUP4 LT ISZERO PUSH2 0xDE5 JUMPI DUP5 DUP10 ADD MLOAD PUSH2 0xDE1 PUSH1 0x1F DUP10 AND DUP3 PUSH2 0xCF4 JUMP JUMPDEST DUP4 SSTORE POP JUMPDEST PUSH1 0x1 PUSH1 0x2 DUP9 MUL ADD DUP9 SSTORE POP POP POP JUMPDEST POP POP POP POP POP POP JUMP JUMPDEST PUSH32 0x4E487B7100000000000000000000000000000000000000000000000000000000 PUSH0 MSTORE PUSH1 0x12 PUSH1 0x4 MSTORE PUSH1 0x24 PUSH0 REVERT JUMPDEST PUSH0 PUSH2 0xE31 DUP3 PUSH2 0x821 JUMP JUMPDEST SWAP2 POP PUSH2 0xE3C DUP4 PUSH2 0x821 JUMP JUMPDEST SWAP3 POP DUP3 PUSH2 0xE4C JUMPI PUSH2 0xE4B PUSH2 0xDFA JUMP JUMPDEST JUMPDEST DUP3 DUP3 MOD SWAP1 POP SWAP3 SWAP2 POP POP JUMP JUMPDEST PUSH0 PUSH2 0xE61 DUP3 PUSH2 0x821 JUMP JUMPDEST SWAP2 POP PUSH2 0xE6C DUP4 PUSH2 0x821 JUMP JUMPDEST SWAP3 POP DUP3 PUSH2 0xE7C JUMPI PUSH2 0xE7B PUSH2 0xDFA JUMP JUMPDEST JUMPDEST DUP3 DUP3 DIV SWAP1 POP SWAP3 SWAP2 POP POP JUMP INVALID LOG2 PUSH5 0x6970667358 0x22 SLT KECCAK256 PUSH31 0x5F077DD3CCFEBBDC1DB164F4D63A3DD5D05FF36C80E0985BC545F147BF11EF PUSH5 0x736F6C6343 STOP ADDMOD 0x1E STOP CALLER "
				},
				"gasEstimates": {
					"creation": {
						"codeDepositCost": "754600",
						"executionCost": "73624",
						"totalCost": "828224"
					},
					"external": {
						"create(string,uint256,string)": "infinite",
						"setOwner(address)": "26862",
						"vote(uint8)": "infinite"
					},
					"internal": {
						"calculateCurrentState()": "infinite",
						"isVoted(address)": "2256"
					}
				},
				"methodIdentifiers": {
					"create(string,uint256,string)": "e257a371",
					"setOwner(address)": "13af4035",
					"vote(uint8)": "b3f98adc"
				}
			},
			"storageLayout": {
				"storage": [
					{
						"astId": 3,
						"contract": "contracts/Proposal.sol:ProposalContract",
						"label": "counter",
						"offset": 0,
						"slot": "0",
						"type": "t_uint256"
					},
					{
						"astId": 5,
						"contract": "contracts/Proposal.sol:ProposalContract",
						"label": "owner",
						"offset": 0,
						"slot": "1",
						"type": "t_address"
					},
					{
						"astId": 27,
						"contract": "contracts/Proposal.sol:ProposalContract",
						"label": "proposal_history",
						"offset": 0,
						"slot": "2",
						"type": "t_mapping(t_uint256,t_struct(Proposal)22_storage)"
					},
					{
						"astId": 30,
						"contract": "contracts/Proposal.sol:ProposalContract",
						"label": "voted_addresses",
						"offset": 0,
						"slot": "3",
						"type": "t_array(t_address)dyn_storage"
					},
					{
						"astId": 34,
						"contract": "contracts/Proposal.sol:ProposalContract",
						"label": "hasVoted",
						"offset": 0,
						"slot": "4",
						"type": "t_mapping(t_address,t_bool)"
					}
				],
				"types": {
					"t_address": {
						"encoding": "inplace",
						"label": "address",
						"numberOfBytes": "20"
					},
					"t_array(t_address)dyn_storage": {
						"base": "t_address",
						"encoding": "dynamic_array",
						"label": "address[]",
						"numberOfBytes": "32"
					},
					"t_bool": {
						"encoding": "inplace",
						"label": "bool",
						"numberOfBytes": "1"
					},
					"t_mapping(t_address,t_bool)": {
						"encoding": "mapping",
						"key": "t_address",
						"label": "mapping(address => bool)",
						"numberOfBytes": "32",
						"value": "t_bool"
					},
					"t_mapping(t_uint256,t_struct(Proposal)22_storage)": {
						"encoding": "mapping",
						"key": "t_uint256",
						"label": "mapping(uint256 => struct ProposalContract.Proposal)",
						"numberOfBytes": "32",
						"value": "t_struct(Proposal)22_storage"
					},
					"t_string_storage": {
						"encoding": "bytes",
						"label": "string",
						"numberOfBytes": "32"
					},
					"t_struct(Proposal)22_storage": {
						"encoding": "inplace",
						"label": "struct ProposalContract.Proposal",
						"members": [
							{
								"astId": 7,
								"contract": "contracts/Proposal.sol:ProposalContract",
								"label": "description",
								"offset": 0,
								"slot": "0",
								"type": "t_string_storage"
							},
							{
								"astId": 9,
								"contract": "contracts/Proposal.sol:ProposalContract",
								"label": "approve",
								"offset": 0,
								"slot": "1",
								"type": "t_uint256"
							},
							{
								"astId": 11,
								"contract": "contracts/Proposal.sol:ProposalContract",
								"label": "reject",
								"offset": 0,
								"slot": "2",
								"type": "t_uint256"
							},
							{
								"astId": 13,
								"contract": "contracts/Proposal.sol:ProposalContract",
								"label": "pass",
								"offset": 0,
								"slot": "3",
								"type": "t_uint256"
							},
							{
								"astId": 15,
								"contract": "contracts/Proposal.sol:ProposalContract",
								"label": "total_vote_to_end",
								"offset": 0,
								"slot": "4",
								"type": "t_uint256"
							},
							{
								"astId": 17,
								"contract": "contracts/Proposal.sol:ProposalContract",
								"label": "current_state",
								"offset": 0,
								"slot": "5",
								"type": "t_bool"
							},
							{
								"astId": 19,
								"contract": "contracts/Proposal.sol:ProposalContract",
								"label": "is_active",
								"offset": 1,
								"slot": "5",
								"type": "t_bool"
							},
							{
								"astId": 21,
								"contract": "contracts/Proposal.sol:ProposalContract",
								"label": "title",
								"offset": 0,
								"slot": "6",
								"type": "t_string_storage"
							}
						],
						"numberOfBytes": "224"
					},
					"t_uint256": {
						"encoding": "inplace",
						"label": "uint256",
						"numberOfBytes": "32"
					}
				}
			},
			"userdoc": {
				"kind": "user",
				"methods": {},
				"version": 1
			}
		}
	}
}